{
  "contractName": "GraveFactory",
  "abi": [
    {
      "inputs": [],
      "stateMutability": "nonpayable",
      "type": "constructor"
    },
    {
      "anonymous": false,
      "inputs": [
        {
          "indexed": true,
          "internalType": "contract Grave",
          "name": "grave",
          "type": "address"
        },
        {
          "indexed": true,
          "internalType": "address",
          "name": "inheritor",
          "type": "address"
        }
      ],
      "name": "GraveCreated",
      "type": "event"
    },
    {
      "inputs": [],
      "name": "associatedGravesCount",
      "outputs": [
        {
          "internalType": "uint256",
          "name": "",
          "type": "uint256"
        }
      ],
      "stateMutability": "view",
      "type": "function",
      "constant": true
    },
    {
      "inputs": [
        {
          "internalType": "string",
          "name": "name",
          "type": "string"
        },
        {
          "internalType": "int256",
          "name": "birth",
          "type": "int256"
        },
        {
          "internalType": "int256",
          "name": "death",
          "type": "int256"
        },
        {
          "internalType": "string",
          "name": "portraitURL",
          "type": "string"
        },
        {
          "internalType": "string",
          "name": "epigraph",
          "type": "string"
        }
      ],
      "name": "createGrave",
      "outputs": [],
      "stateMutability": "nonpayable",
      "type": "function"
    },
    {
      "inputs": [
        {
          "internalType": "uint256",
          "name": "limit",
          "type": "uint256"
        },
        {
          "internalType": "uint256",
          "name": "offset",
          "type": "uint256"
        }
      ],
      "name": "associatedGraves",
      "outputs": [
        {
          "internalType": "contract Grave[]",
          "name": "coll",
          "type": "address[]"
        }
      ],
      "stateMutability": "view",
      "type": "function",
      "constant": true
    },
    {
      "inputs": [
        {
          "internalType": "address",
          "name": "graveAddress",
          "type": "address"
        }
      ],
      "name": "associateGrave",
      "outputs": [],
      "stateMutability": "nonpayable",
      "type": "function"
    },
    {
      "inputs": [
        {
          "internalType": "address",
          "name": "graveAddress",
          "type": "address"
        }
      ],
      "name": "unassociateGrave",
      "outputs": [],
      "stateMutability": "nonpayable",
      "type": "function"
    },
    {
      "inputs": [
        {
          "internalType": "address",
          "name": "graveAddress",
          "type": "address"
        }
      ],
      "name": "isAssociated",
      "outputs": [
        {
          "internalType": "bool",
          "name": "",
          "type": "bool"
        }
      ],
      "stateMutability": "view",
      "type": "function",
      "constant": true
    }
  ],
  "bytecode": "0x608060405234801561001057600080fd5b50612a86806100206000396000f3fe60806040523480156200001157600080fd5b50600436106200006a5760003560e01c806341696253146200006f57806347c56490146200008f57806399041e1714620000b1578063a4686fd414620000d1578063cf8f183714620000f1578063d55fe5821462000127575b600080fd5b6200008d60048036038101906200008791906200099f565b6200015d565b005b620000996200036a565b604051620000a89190620009ec565b60405180910390f35b620000cf6004803603810190620000c9919062000ba6565b620003b3565b005b620000ef6004803603810190620000e991906200099f565b620004fb565b005b6200010f600480360381019062000109919062000cbc565b6200064d565b6040516200011e919062000e2b565b60405180910390f35b6200014560048036038101906200013f91906200099f565b62000829565b60405162000154919062000e6c565b60405180910390f35b60008060003373ffffffffffffffffffffffffffffffffffffffff1673ffffffffffffffffffffffffffffffffffffffff16815260200190815260200160002090506000805b828054905081101562000313578373ffffffffffffffffffffffffffffffffffffffff16838281548110620001dd57620001dc62000e89565b5b9060005260206000200160009054906101000a900473ffffffffffffffffffffffffffffffffffffffff1673ffffffffffffffffffffffffffffffffffffffff1614156200022a57600191505b818015620002495750828054905060018262000247919062000ee7565b105b15620002fd57826001826200025f919062000ee7565b8154811062000273576200027262000e89565b5b9060005260206000200160009054906101000a900473ffffffffffffffffffffffffffffffffffffffff16838281548110620002b457620002b362000e89565b5b9060005260206000200160006101000a81548173ffffffffffffffffffffffffffffffffffffffff021916908373ffffffffffffffffffffffffffffffffffffffff1602179055505b80806200030a9062000f44565b915050620001a3565b5080156200036557818054806200032f576200032e62000f92565b5b6001900381819060005260206000200160006101000a81549073ffffffffffffffffffffffffffffffffffffffff021916905590555b505050565b60008060003373ffffffffffffffffffffffffffffffffffffffff1673ffffffffffffffffffffffffffffffffffffffff16815260200190815260200160002080549050905090565b6000858585858533604051620003c99062000918565b620003da9695949392919062001076565b604051809103906000f080158015620003f7573d6000803e3d6000fd5b5090506000803373ffffffffffffffffffffffffffffffffffffffff1673ffffffffffffffffffffffffffffffffffffffff168152602001908152602001600020819080600181540180825580915050600190039060005260206000200160009091909190916101000a81548173ffffffffffffffffffffffffffffffffffffffff021916908373ffffffffffffffffffffffffffffffffffffffff1602179055503373ffffffffffffffffffffffffffffffffffffffff168173ffffffffffffffffffffffffffffffffffffffff167f0ad0720dfb254771cb787f726c3eb9d29ac7787e30867038582fb949688ba1e760405160405180910390a3505050505050565b60008060003373ffffffffffffffffffffffffffffffffffffffff1673ffffffffffffffffffffffffffffffffffffffff16815260200190815260200160002090506000805b8280549050811015620005de578373ffffffffffffffffffffffffffffffffffffffff168382815481106200057b576200057a62000e89565b5b9060005260206000200160009054906101000a900473ffffffffffffffffffffffffffffffffffffffff1673ffffffffffffffffffffffffffffffffffffffff161415620005c857600191505b8080620005d59062000f44565b91505062000541565b5080620006485781839080600181540180825580915050600190039060005260206000200160009091909190916101000a81548173ffffffffffffffffffffffffffffffffffffffff021916908373ffffffffffffffffffffffffffffffffffffffff1602179055505b505050565b606060006200065b6200036a565b905060008382106200066e578362000670565b815b905060006014861162000684578562000687565b60145b905060008382876200069a919062000ee7565b10620006a75783620006b6565b8186620006b5919062000ee7565b5b90508281620006c69190620010f8565b67ffffffffffffffff811115620006e257620006e162000a24565b5b604051908082528060200260200182016040528015620007115781602001602082028036833780820191505090505b50945060005b81848262000726919062000ee7565b10156200081e576000803373ffffffffffffffffffffffffffffffffffffffff1673ffffffffffffffffffffffffffffffffffffffff168152602001908152602001600020848262000779919062000ee7565b815481106200078d576200078c62000e89565b5b9060005260206000200160009054906101000a900473ffffffffffffffffffffffffffffffffffffffff16868281518110620007ce57620007cd62000e89565b5b602002602001019073ffffffffffffffffffffffffffffffffffffffff16908173ffffffffffffffffffffffffffffffffffffffff16815250508080620008159062000f44565b91505062000717565b505050505092915050565b6000806000803373ffffffffffffffffffffffffffffffffffffffff1673ffffffffffffffffffffffffffffffffffffffff16815260200190815260200160002090506000805b82805490508110156200090d578473ffffffffffffffffffffffffffffffffffffffff16838281548110620008aa57620008a962000e89565b5b9060005260206000200160009054906101000a900473ffffffffffffffffffffffffffffffffffffffff1673ffffffffffffffffffffffffffffffffffffffff161415620008f757600191505b8080620009049062000f44565b91505062000870565b508092505050919050565b61191d806200113483390190565b6000604051905090565b600080fd5b600080fd5b600073ffffffffffffffffffffffffffffffffffffffff82169050919050565b600062000967826200093a565b9050919050565b62000979816200095a565b81146200098557600080fd5b50565b60008135905062000999816200096e565b92915050565b600060208284031215620009b857620009b762000930565b5b6000620009c88482850162000988565b91505092915050565b6000819050919050565b620009e681620009d1565b82525050565b600060208201905062000a036000830184620009db565b92915050565b600080fd5b600080fd5b6000601f19601f8301169050919050565b7f4e487b7100000000000000000000000000000000000000000000000000000000600052604160045260246000fd5b62000a5e8262000a13565b810181811067ffffffffffffffff8211171562000a805762000a7f62000a24565b5b80604052505050565b600062000a9562000926565b905062000aa3828262000a53565b919050565b600067ffffffffffffffff82111562000ac65762000ac562000a24565b5b62000ad18262000a13565b9050602081019050919050565b82818337600083830152505050565b600062000b0462000afe8462000aa8565b62000a89565b90508281526020810184848401111562000b235762000b2262000a0e565b5b62000b3084828562000ade565b509392505050565b600082601f83011262000b505762000b4f62000a09565b5b813562000b6284826020860162000aed565b91505092915050565b6000819050919050565b62000b808162000b6b565b811462000b8c57600080fd5b50565b60008135905062000ba08162000b75565b92915050565b600080600080600060a0868803121562000bc55762000bc462000930565b5b600086013567ffffffffffffffff81111562000be65762000be562000935565b5b62000bf48882890162000b38565b955050602062000c078882890162000b8f565b945050604062000c1a8882890162000b8f565b935050606086013567ffffffffffffffff81111562000c3e5762000c3d62000935565b5b62000c4c8882890162000b38565b925050608086013567ffffffffffffffff81111562000c705762000c6f62000935565b5b62000c7e8882890162000b38565b9150509295509295909350565b62000c9681620009d1565b811462000ca257600080fd5b50565b60008135905062000cb68162000c8b565b92915050565b6000806040838503121562000cd65762000cd562000930565b5b600062000ce68582860162000ca5565b925050602062000cf98582860162000ca5565b9150509250929050565b600081519050919050565b600082825260208201905092915050565b6000819050602082019050919050565b6000819050919050565b600062000d5a62000d5462000d4e846200093a565b62000d2f565b6200093a565b9050919050565b600062000d6e8262000d39565b9050919050565b600062000d828262000d61565b9050919050565b62000d948162000d75565b82525050565b600062000da8838362000d89565b60208301905092915050565b6000602082019050919050565b600062000dce8262000d03565b62000dda818562000d0e565b935062000de78362000d1f565b8060005b8381101562000e1e57815162000e02888262000d9a565b975062000e0f8362000db4565b92505060018101905062000deb565b5085935050505092915050565b6000602082019050818103600083015262000e47818462000dc1565b905092915050565b60008115159050919050565b62000e668162000e4f565b82525050565b600060208201905062000e83600083018462000e5b565b92915050565b7f4e487b7100000000000000000000000000000000000000000000000000000000600052603260045260246000fd5b7f4e487b7100000000000000000000000000000000000000000000000000000000600052601160045260246000fd5b600062000ef482620009d1565b915062000f0183620009d1565b9250827fffffffffffffffffffffffffffffffffffffffffffffffffffffffffffffffff0382111562000f395762000f3862000eb8565b5b828201905092915050565b600062000f5182620009d1565b91507fffffffffffffffffffffffffffffffffffffffffffffffffffffffffffffffff82141562000f875762000f8662000eb8565b5b600182019050919050565b7f4e487b7100000000000000000000000000000000000000000000000000000000600052603160045260246000fd5b600081519050919050565b600082825260208201905092915050565b60005b8381101562000ffd57808201518184015260208101905062000fe0565b838111156200100d576000848401525b50505050565b6000620010208262000fc1565b6200102c818562000fcc565b93506200103e81856020860162000fdd565b620010498162000a13565b840191505092915050565b6200105f8162000b6b565b82525050565b62001070816200095a565b82525050565b600060c082019050818103600083015262001092818962001013565b9050620010a3602083018862001054565b620010b2604083018762001054565b8181036060830152620010c6818662001013565b90508181036080830152620010dc818562001013565b9050620010ed60a083018462001065565b979650505050505050565b60006200110582620009d1565b91506200111283620009d1565b92508282101562001128576200112762000eb8565b5b82820390509291505056fe60806040523480156200001157600080fd5b506040516200191d3803806200191d833981810160405281019062000037919062000488565b85600090805190602001906200004f9291906200019b565b5084600181905550836002819055508260039080519060200190620000769291906200019b565b5081600490805190602001906200008f9291906200019b565b5080600760006101000a81548173ffffffffffffffffffffffffffffffffffffffff021916908373ffffffffffffffffffffffffffffffffffffffff16021790555080600660006101000a81548173ffffffffffffffffffffffffffffffffffffffff021916908373ffffffffffffffffffffffffffffffffffffffff16021790555060006005819055506000600760146101000a81548160ff0219169083151502179055508073ffffffffffffffffffffffffffffffffffffffff163073ffffffffffffffffffffffffffffffffffffffff167f587ece4cd19692c5be1a4184503d607d45542d2aca0698c0068f52e09ccb541c60405160405180910390a3505050505050620005e6565b828054620001a990620005b0565b90600052602060002090601f016020900481019282620001cd576000855562000219565b82601f10620001e857805160ff191683800117855562000219565b8280016001018555821562000219579182015b8281111562000218578251825591602001919060010190620001fb565b5b5090506200022891906200022c565b5090565b5b80821115620002475760008160009055506001016200022d565b5090565b6000604051905090565b600080fd5b600080fd5b600080fd5b600080fd5b6000601f19601f8301169050919050565b7f4e487b7100000000000000000000000000000000000000000000000000000000600052604160045260246000fd5b620002b48262000269565b810181811067ffffffffffffffff82111715620002d657620002d56200027a565b5b80604052505050565b6000620002eb6200024b565b9050620002f98282620002a9565b919050565b600067ffffffffffffffff8211156200031c576200031b6200027a565b5b620003278262000269565b9050602081019050919050565b60005b838110156200035457808201518184015260208101905062000337565b8381111562000364576000848401525b50505050565b6000620003816200037b84620002fe565b620002df565b905082815260208101848484011115620003a0576200039f62000264565b5b620003ad84828562000334565b509392505050565b600082601f830112620003cd57620003cc6200025f565b5b8151620003df8482602086016200036a565b91505092915050565b6000819050919050565b620003fd81620003e8565b81146200040957600080fd5b50565b6000815190506200041d81620003f2565b92915050565b600073ffffffffffffffffffffffffffffffffffffffff82169050919050565b6000620004508262000423565b9050919050565b620004628162000443565b81146200046e57600080fd5b50565b600081519050620004828162000457565b92915050565b60008060008060008060c08789031215620004a857620004a762000255565b5b600087015167ffffffffffffffff811115620004c957620004c86200025a565b5b620004d789828a01620003b5565b9650506020620004ea89828a016200040c565b9550506040620004fd89828a016200040c565b945050606087015167ffffffffffffffff8111156200052157620005206200025a565b5b6200052f89828a01620003b5565b935050608087015167ffffffffffffffff8111156200055357620005526200025a565b5b6200056189828a01620003b5565b92505060a06200057489828a0162000471565b9150509295509295509295565b7f4e487b7100000000000000000000000000000000000000000000000000000000600052602260045260246000fd5b60006002820490506001821680620005c957607f821691505b60208210811415620005e057620005df62000581565b5b50919050565b61132780620005f66000396000f3fe608060405234801561001057600080fd5b50600436106100f55760003560e01c80636f4327ae116100975780638d4e4083116100665780638d4e408314610204578063b332180b14610222578063c81ba8f01461023e578063cdd72a651461025c576100f5565b80636f4327ae1461018e5780636fa42261146101aa5780636ff968c3146101c8578063855934f6146101e6576100f5565b806336a52a18116100d357806336a52a181461013e578063419905e51461015c5780634bb278f3146101665780634c060ec514610170576100f5565b806306fdde03146100fa5780632432e5c3146101185780632b445d7814610134575b600080fd5b61010261027a565b60405161010f9190610c60565b60405180910390f35b610132600480360381019061012d9190610dcb565b610308565b005b61013c6103f5565b005b61014661052d565b6040516101539190610e55565b60405180910390f35b610164610553565b005b61016e6105b0565b005b6101786106f0565b6040516101859190610c60565b60405180910390f35b6101a860048036038101906101a39190610ea6565b61077e565b005b6101b26108fb565b6040516101bf9190610f84565b60405180910390f35b6101d0610901565b6040516101dd9190610e55565b60405180910390f35b6101ee610927565b6040516101fb9190610c60565b60405180910390f35b61020c6109b5565b6040516102199190610fba565b60405180910390f35b61023c60048036038101906102379190611001565b6109c8565b005b610246610b18565b6040516102539190610f84565b60405180910390f35b610264610b1e565b6040516102719190611047565b60405180910390f35b6000805461028790611091565b80601f01602080910402602001604051908101604052809291908181526020018280546102b390611091565b80156103005780601f106102d557610100808354040283529160200191610300565b820191906000526020600020905b8154815290600101906020018083116102e357829003601f168201915b505050505081565b600660009054906101000a900473ffffffffffffffffffffffffffffffffffffffff1673ffffffffffffffffffffffffffffffffffffffff163373ffffffffffffffffffffffffffffffffffffffff1614610398576040517f08c379a000000000000000000000000000000000000000000000000000000000815260040161038f90611135565b60405180910390fd5b80600390805190602001906103ae929190610b24565b503373ffffffffffffffffffffffffffffffffffffffff167f3ae1cf7f1c1eb36ec0c24d58f3b53f659eb11765219e314000d130684f2fdbe160405160405180910390a250565b600760009054906101000a900473ffffffffffffffffffffffffffffffffffffffff1673ffffffffffffffffffffffffffffffffffffffff163373ffffffffffffffffffffffffffffffffffffffff1614610485576040517f08c379a000000000000000000000000000000000000000000000000000000000815260040161047c906111c7565b60405180910390fd5b600760009054906101000a900473ffffffffffffffffffffffffffffffffffffffff16600660006101000a81548173ffffffffffffffffffffffffffffffffffffffff021916908373ffffffffffffffffffffffffffffffffffffffff1602179055503373ffffffffffffffffffffffffffffffffffffffff167f6e5f35e8104c314f925d0baafd67e814ede64c5b6673a233aa82c023e2451cd860405160405180910390a2565b600660009054906101000a900473ffffffffffffffffffffffffffffffffffffffff1681565b6005600081548092919061056690611216565b91905055503373ffffffffffffffffffffffffffffffffffffffff167fecc46e7b5553b28cd948aa516f075200721a4f2ddcbc4b68a41f61c51909fdef60405160405180910390a2565b600660009054906101000a900473ffffffffffffffffffffffffffffffffffffffff1673ffffffffffffffffffffffffffffffffffffffff163373ffffffffffffffffffffffffffffffffffffffff1614610640576040517f08c379a000000000000000000000000000000000000000000000000000000000815260040161063790611135565b60405180910390fd5b600760149054906101000a900460ff1615610690576040517f08c379a0000000000000000000000000000000000000000000000000000000008152600401610687906112d1565b60405180910390fd5b6001600760146101000a81548160ff0219169083151502179055503373ffffffffffffffffffffffffffffffffffffffff167f8e500951de09bcc6854e88c0810bafb819503505895751e657a92df6578d3d9960405160405180910390a2565b600380546106fd90611091565b80601f016020809104026020016040519081016040528092919081815260200182805461072990611091565b80156107765780601f1061074b57610100808354040283529160200191610776565b820191906000526020600020905b81548152906001019060200180831161075957829003601f168201915b505050505081565b600660009054906101000a900473ffffffffffffffffffffffffffffffffffffffff1673ffffffffffffffffffffffffffffffffffffffff163373ffffffffffffffffffffffffffffffffffffffff161461080e576040517f08c379a000000000000000000000000000000000000000000000000000000000815260040161080590611135565b60405180910390fd5b600760149054906101000a900460ff161561085e576040517f08c379a0000000000000000000000000000000000000000000000000000000008152600401610855906112d1565b60405180910390fd5b8460009080519060200190610874929190610b24565b5083600181905550826002819055508160039080519060200190610899929190610b24565b5080600490805190602001906108b0929190610b24565b503373ffffffffffffffffffffffffffffffffffffffff167fe00da2178806f37f69815e9ed5ed3072ec1d55206d60916d99b469c7daa421e460405160405180910390a25050505050565b60025481565b600760009054906101000a900473ffffffffffffffffffffffffffffffffffffffff1681565b6004805461093490611091565b80601f016020809104026020016040519081016040528092919081815260200182805461096090611091565b80156109ad5780601f10610982576101008083540402835291602001916109ad565b820191906000526020600020905b81548152906001019060200180831161099057829003601f168201915b505050505081565b600760149054906101000a900460ff1681565b600660009054906101000a900473ffffffffffffffffffffffffffffffffffffffff1673ffffffffffffffffffffffffffffffffffffffff163373ffffffffffffffffffffffffffffffffffffffff1614610a58576040517f08c379a0000000000000000000000000000000000000000000000000000000008152600401610a4f90611135565b60405180910390fd5b80600760006101000a81548173ffffffffffffffffffffffffffffffffffffffff021916908373ffffffffffffffffffffffffffffffffffffffff160217905550600760009054906101000a900473ffffffffffffffffffffffffffffffffffffffff1673ffffffffffffffffffffffffffffffffffffffff163373ffffffffffffffffffffffffffffffffffffffff167f3ce7d0c04d2ef9adf7825b41aa982b376bd65267c91603077653811dcce94b7460405160405180910390a350565b60015481565b60055481565b828054610b3090611091565b90600052602060002090601f016020900481019282610b525760008555610b99565b82601f10610b6b57805160ff1916838001178555610b99565b82800160010185558215610b99579182015b82811115610b98578251825591602001919060010190610b7d565b5b509050610ba69190610baa565b5090565b5b80821115610bc3576000816000905550600101610bab565b5090565b600081519050919050565b600082825260208201905092915050565b60005b83811015610c01578082015181840152602081019050610be6565b83811115610c10576000848401525b50505050565b6000601f19601f8301169050919050565b6000610c3282610bc7565b610c3c8185610bd2565b9350610c4c818560208601610be3565b610c5581610c16565b840191505092915050565b60006020820190508181036000830152610c7a8184610c27565b905092915050565b6000604051905090565b600080fd5b600080fd5b600080fd5b600080fd5b7f4e487b7100000000000000000000000000000000000000000000000000000000600052604160045260246000fd5b610cd882610c16565b810181811067ffffffffffffffff82111715610cf757610cf6610ca0565b5b80604052505050565b6000610d0a610c82565b9050610d168282610ccf565b919050565b600067ffffffffffffffff821115610d3657610d35610ca0565b5b610d3f82610c16565b9050602081019050919050565b82818337600083830152505050565b6000610d6e610d6984610d1b565b610d00565b905082815260208101848484011115610d8a57610d89610c9b565b5b610d95848285610d4c565b509392505050565b600082601f830112610db257610db1610c96565b5b8135610dc2848260208601610d5b565b91505092915050565b600060208284031215610de157610de0610c8c565b5b600082013567ffffffffffffffff811115610dff57610dfe610c91565b5b610e0b84828501610d9d565b91505092915050565b600073ffffffffffffffffffffffffffffffffffffffff82169050919050565b6000610e3f82610e14565b9050919050565b610e4f81610e34565b82525050565b6000602082019050610e6a6000830184610e46565b92915050565b6000819050919050565b610e8381610e70565b8114610e8e57600080fd5b50565b600081359050610ea081610e7a565b92915050565b600080600080600060a08688031215610ec257610ec1610c8c565b5b600086013567ffffffffffffffff811115610ee057610edf610c91565b5b610eec88828901610d9d565b9550506020610efd88828901610e91565b9450506040610f0e88828901610e91565b935050606086013567ffffffffffffffff811115610f2f57610f2e610c91565b5b610f3b88828901610d9d565b925050608086013567ffffffffffffffff811115610f5c57610f5b610c91565b5b610f6888828901610d9d565b9150509295509295909350565b610f7e81610e70565b82525050565b6000602082019050610f996000830184610f75565b92915050565b60008115159050919050565b610fb481610f9f565b82525050565b6000602082019050610fcf6000830184610fab565b92915050565b610fde81610e34565b8114610fe957600080fd5b50565b600081359050610ffb81610fd5565b92915050565b60006020828403121561101757611016610c8c565b5b600061102584828501610fec565b91505092915050565b6000819050919050565b6110418161102e565b82525050565b600060208201905061105c6000830184611038565b92915050565b7f4e487b7100000000000000000000000000000000000000000000000000000000600052602260045260246000fd5b600060028204905060018216806110a957607f821691505b602082108114156110bd576110bc611062565b5b50919050565b7f47726176653a2063616c6c6572206973206e6f742074686520696e686572697460008201527f6f72000000000000000000000000000000000000000000000000000000000000602082015250565b600061111f602283610bd2565b915061112a826110c3565b604082019050919050565b6000602082019050818103600083015261114e81611112565b9050919050565b7f47726176653a2063616c6c6572206973206e6f7420746865207375636365737360008201527f6f72000000000000000000000000000000000000000000000000000000000000602082015250565b60006111b1602283610bd2565b91506111bc82611155565b604082019050919050565b600060208201905081810360008301526111e0816111a4565b9050919050565b7f4e487b7100000000000000000000000000000000000000000000000000000000600052601160045260246000fd5b60006112218261102e565b91507fffffffffffffffffffffffffffffffffffffffffffffffffffffffffffffffff821415611254576112536111e7565b5b600182019050919050565b7f47726176653a206974277320616c7265616479206265656e2066696e616c697a60008201527f6564000000000000000000000000000000000000000000000000000000000000602082015250565b60006112bb602283610bd2565b91506112c68261125f565b604082019050919050565b600060208201905081810360008301526112ea816112ae565b905091905056fea2646970667358221220eae13129230f09b7df1d169295338505a3dfa32a24892c58ece84c8845080e6364736f6c634300080b0033a2646970667358221220fc44c414e4e1bdbc06bd244be38f4aaa57a36e3ee0d5560f2d967345cefcb02b64736f6c634300080b0033",
  "immutableReferences": {},
  "source": "// SPDX-License-Identifier: MIT\npragma solidity >=0.4.22 <0.9.0;\n\nimport \"./Grave.sol\";\n\ncontract GraveFactory {\n    event GraveCreated(Grave indexed grave, address indexed inheritor);\n\n    mapping(address => Grave[]) private _graves;\n    uint256 constant maxLimit = 20;\n\n    constructor() { }\n\n    function associatedGravesCount() public view returns(uint256) {\n        return _graves[msg.sender].length;\n    }\n\n    function createGrave(string memory name, int256 birth, int256 death, string memory portraitURL, string memory epigraph) public {\n        Grave grave = new Grave(name, birth, death, portraitURL, epigraph, msg.sender);\n        _graves[msg.sender].push(grave);\n        emit GraveCreated(grave, msg.sender);\n    }\n\n    function associatedGraves(uint256 limit, uint256 offset) public view returns(Grave[] memory coll) {\n        uint256 count = associatedGravesCount();\n        uint256 start = count < offset ? count : offset;\n        uint256 currentLimit = limit > maxLimit ? maxLimit : limit;\n        uint256 end = offset + currentLimit < count ? offset + currentLimit : count;\n\n        coll = new Grave[](end - start);\n\n        for(uint256 i=0; i+start<end; i++) {\n            coll[i] = _graves[msg.sender][i+start];\n        }\n        return coll;\n    }\n\n    function associateGrave(address graveAddress) public {\n        Grave[] storage graves = _graves[msg.sender];\n        bool contain = false;\n        for(uint256 i=0; i<graves.length; i++) {\n            if(address(graves[i]) == graveAddress) contain = true;\n        }\n        if(!contain) graves.push(Grave(graveAddress));\n    }\n\n    function unassociateGrave(address graveAddress) public {\n        Grave[] storage graves = _graves[msg.sender];\n        bool contain = false;\n\n        for(uint256 i=0; i<graves.length; i++) {\n            if(address(graves[i]) == graveAddress) contain = true;\n            if(contain && i+1<graves.length) graves[i] = graves[i+1];\n        }\n        if(contain) graves.pop();\n    }\n\n    function isAssociated(address graveAddress) public view returns (bool) {\n        Grave[] storage graves = _graves[msg.sender];\n        bool contain = false;\n        for(uint256 i=0; i<graves.length; i++) {\n            if(address(graves[i]) == graveAddress) contain = true;\n        }\n        return contain;\n    }\n}",
  "sourcePath": "/work/digital-cemetery/contracts/GraveFactory.sol",
  "compiler": {
    "name": "solc",
    "version": "0.8.11+commit.d7f03943.Emscripten.clang"
  },
  "schemaVersion": "3.4.4",
  "updatedAt": "2022-02-23T14:54:08.665Z",
  "networkType": "ethereum",
  "devdoc": {
    "kind": "dev",
    "methods": {},
    "version": 1
  },
  "userdoc": {
    "kind": "user",
    "methods": {},
    "version": 1
  }
}