{
  "contractName": "GraveFactory",
  "abi": [
    {
      "inputs": [],
      "stateMutability": "nonpayable",
      "type": "constructor"
    },
    {
      "anonymous": false,
      "inputs": [
        {
          "indexed": true,
          "internalType": "contract Grave",
          "name": "grave",
          "type": "address"
        },
        {
          "indexed": true,
          "internalType": "address",
          "name": "inheritor",
          "type": "address"
        }
      ],
      "name": "CreatedGrave",
      "type": "event"
    },
    {
      "inputs": [],
      "name": "associatedGravesCount",
      "outputs": [
        {
          "internalType": "uint256",
          "name": "",
          "type": "uint256"
        }
      ],
      "stateMutability": "view",
      "type": "function",
      "constant": true
    },
    {
      "inputs": [
        {
          "internalType": "string",
          "name": "name",
          "type": "string"
        },
        {
          "internalType": "int256",
          "name": "birth",
          "type": "int256"
        },
        {
          "internalType": "int256",
          "name": "death",
          "type": "int256"
        },
        {
          "internalType": "string",
          "name": "portraitURL",
          "type": "string"
        }
      ],
      "name": "createGrave",
      "outputs": [],
      "stateMutability": "nonpayable",
      "type": "function"
    },
    {
      "inputs": [
        {
          "internalType": "uint256",
          "name": "limit",
          "type": "uint256"
        },
        {
          "internalType": "uint256",
          "name": "offset",
          "type": "uint256"
        }
      ],
      "name": "associatedGraves",
      "outputs": [
        {
          "internalType": "contract Grave[]",
          "name": "coll",
          "type": "address[]"
        }
      ],
      "stateMutability": "view",
      "type": "function",
      "constant": true
    },
    {
      "inputs": [
        {
          "internalType": "address",
          "name": "graveAddress",
          "type": "address"
        }
      ],
      "name": "associateGrave",
      "outputs": [],
      "stateMutability": "nonpayable",
      "type": "function"
    }
  ],
  "bytecode": "0x608060405234801561001057600080fd5b50611e35806100206000396000f3fe60806040523480156200001157600080fd5b5060043610620000525760003560e01c806347c564901462000057578063a4686fd41462000079578063cf8f18371462000099578063f1cebf8f14620000cf575b600080fd5b62000061620000ef565b60405162000070919062000531565b60405180910390f35b620000976004803603810190620000919190620005c7565b62000138565b005b620000b76004803603810190620000b191906200062a565b620001da565b604051620000c6919062000799565b60405180910390f35b620000ed6004803603810190620000e791906200095a565b620003c3565b005b60008060003373ffffffffffffffffffffffffffffffffffffffff1673ffffffffffffffffffffffffffffffffffffffff16815260200190815260200160002080549050905090565b6000803373ffffffffffffffffffffffffffffffffffffffff1673ffffffffffffffffffffffffffffffffffffffff168152602001908152602001600020819080600181540180825580915050600190039060005260206000200160009091909190916101000a81548173ffffffffffffffffffffffffffffffffffffffff021916908373ffffffffffffffffffffffffffffffffffffffff16021790555050565b60606000620001e8620000ef565b90506000808483620001fb919062000a39565b106200020857836200020a565b815b90506000601486116200021e578562000221565b60145b9050600083828762000234919062000a74565b1062000241578362000250565b81866200024f919062000a74565b5b9050828162000260919062000a39565b67ffffffffffffffff8111156200027c576200027b620007d8565b5b604051908082528060200260200182016040528015620002ab5781602001602082028036833780820191505090505b50945060005b818482620002c0919062000a74565b1015620003b8576000803373ffffffffffffffffffffffffffffffffffffffff1673ffffffffffffffffffffffffffffffffffffffff168152602001908152602001600020848262000313919062000a74565b8154811062000327576200032662000ad1565b5b9060005260206000200160009054906101000a900473ffffffffffffffffffffffffffffffffffffffff1686828151811062000368576200036762000ad1565b5b602002602001019073ffffffffffffffffffffffffffffffffffffffff16908173ffffffffffffffffffffffffffffffffffffffff16815250508080620003af9062000b00565b915050620002b1565b505050505092915050565b60008484848433604051620003d89062000508565b620003e895949392919062000c03565b604051809103906000f08015801562000405573d6000803e3d6000fd5b5090506000803373ffffffffffffffffffffffffffffffffffffffff1673ffffffffffffffffffffffffffffffffffffffff168152602001908152602001600020819080600181540180825580915050600190039060005260206000200160009091909190916101000a81548173ffffffffffffffffffffffffffffffffffffffff021916908373ffffffffffffffffffffffffffffffffffffffff1602179055503373ffffffffffffffffffffffffffffffffffffffff168173ffffffffffffffffffffffffffffffffffffffff167fe033308338db6f6cf2f1a8e305ef70509506db9d0da9620106b1e8373a10db1c60405160405180910390a35050505050565b6111918062000c6f83390190565b6000819050919050565b6200052b8162000516565b82525050565b600060208201905062000548600083018462000520565b92915050565b6000604051905090565b600080fd5b600080fd5b600073ffffffffffffffffffffffffffffffffffffffff82169050919050565b60006200058f8262000562565b9050919050565b620005a18162000582565b8114620005ad57600080fd5b50565b600081359050620005c18162000596565b92915050565b600060208284031215620005e057620005df62000558565b5b6000620005f084828501620005b0565b91505092915050565b620006048162000516565b81146200061057600080fd5b50565b6000813590506200062481620005f9565b92915050565b6000806040838503121562000644576200064362000558565b5b6000620006548582860162000613565b9250506020620006678582860162000613565b9150509250929050565b600081519050919050565b600082825260208201905092915050565b6000819050602082019050919050565b6000819050919050565b6000620006c8620006c2620006bc8462000562565b6200069d565b62000562565b9050919050565b6000620006dc82620006a7565b9050919050565b6000620006f082620006cf565b9050919050565b6200070281620006e3565b82525050565b6000620007168383620006f7565b60208301905092915050565b6000602082019050919050565b60006200073c8262000671565b6200074881856200067c565b935062000755836200068d565b8060005b838110156200078c57815162000770888262000708565b97506200077d8362000722565b92505060018101905062000759565b5085935050505092915050565b60006020820190508181036000830152620007b581846200072f565b905092915050565b600080fd5b600080fd5b6000601f19601f8301169050919050565b7f4e487b7100000000000000000000000000000000000000000000000000000000600052604160045260246000fd5b6200081282620007c7565b810181811067ffffffffffffffff82111715620008345762000833620007d8565b5b80604052505050565b6000620008496200054e565b905062000857828262000807565b919050565b600067ffffffffffffffff8211156200087a5762000879620007d8565b5b6200088582620007c7565b9050602081019050919050565b82818337600083830152505050565b6000620008b8620008b2846200085c565b6200083d565b905082815260208101848484011115620008d757620008d6620007c2565b5b620008e484828562000892565b509392505050565b600082601f830112620009045762000903620007bd565b5b813562000916848260208601620008a1565b91505092915050565b6000819050919050565b62000934816200091f565b81146200094057600080fd5b50565b600081359050620009548162000929565b92915050565b6000806000806080858703121562000977576200097662000558565b5b600085013567ffffffffffffffff8111156200099857620009976200055d565b5b620009a687828801620008ec565b9450506020620009b98782880162000943565b9350506040620009cc8782880162000943565b925050606085013567ffffffffffffffff811115620009f057620009ef6200055d565b5b620009fe87828801620008ec565b91505092959194509250565b7f4e487b7100000000000000000000000000000000000000000000000000000000600052601160045260246000fd5b600062000a468262000516565b915062000a538362000516565b92508282101562000a695762000a6862000a0a565b5b828203905092915050565b600062000a818262000516565b915062000a8e8362000516565b9250827fffffffffffffffffffffffffffffffffffffffffffffffffffffffffffffffff0382111562000ac65762000ac562000a0a565b5b828201905092915050565b7f4e487b7100000000000000000000000000000000000000000000000000000000600052603260045260246000fd5b600062000b0d8262000516565b91507fffffffffffffffffffffffffffffffffffffffffffffffffffffffffffffffff82141562000b435762000b4262000a0a565b5b600182019050919050565b600081519050919050565b600082825260208201905092915050565b60005b8381101562000b8a57808201518184015260208101905062000b6d565b8381111562000b9a576000848401525b50505050565b600062000bad8262000b4e565b62000bb9818562000b59565b935062000bcb81856020860162000b6a565b62000bd681620007c7565b840191505092915050565b62000bec816200091f565b82525050565b62000bfd8162000582565b82525050565b600060a082019050818103600083015262000c1f818862000ba0565b905062000c30602083018762000be1565b62000c3f604083018662000be1565b818103606083015262000c53818562000ba0565b905062000c64608083018462000bf2565b969550505050505056fe60806040523480156200001157600080fd5b50604051620011913803806200119183398181016040528101906200003791906200044b565b84600090805190602001906200004f9291906200015e565b5083600181905550826002819055508160039080519060200190620000769291906200015e565b5080600560006101000a81548173ffffffffffffffffffffffffffffffffffffffff021916908373ffffffffffffffffffffffffffffffffffffffff16021790555080600460006101000a81548173ffffffffffffffffffffffffffffffffffffffff021916908373ffffffffffffffffffffffffffffffffffffffff1602179055508073ffffffffffffffffffffffffffffffffffffffff163073ffffffffffffffffffffffffffffffffffffffff167f587ece4cd19692c5be1a4184503d607d45542d2aca0698c0068f52e09ccb541c60405160405180910390a3505050505062000576565b8280546200016c9062000540565b90600052602060002090601f016020900481019282620001905760008555620001dc565b82601f10620001ab57805160ff1916838001178555620001dc565b82800160010185558215620001dc579182015b82811115620001db578251825591602001919060010190620001be565b5b509050620001eb9190620001ef565b5090565b5b808211156200020a576000816000905550600101620001f0565b5090565b6000604051905090565b600080fd5b600080fd5b600080fd5b600080fd5b6000601f19601f8301169050919050565b7f4e487b7100000000000000000000000000000000000000000000000000000000600052604160045260246000fd5b62000277826200022c565b810181811067ffffffffffffffff821117156200029957620002986200023d565b5b80604052505050565b6000620002ae6200020e565b9050620002bc82826200026c565b919050565b600067ffffffffffffffff821115620002df57620002de6200023d565b5b620002ea826200022c565b9050602081019050919050565b60005b8381101562000317578082015181840152602081019050620002fa565b8381111562000327576000848401525b50505050565b6000620003446200033e84620002c1565b620002a2565b90508281526020810184848401111562000363576200036262000227565b5b62000370848285620002f7565b509392505050565b600082601f83011262000390576200038f62000222565b5b8151620003a28482602086016200032d565b91505092915050565b6000819050919050565b620003c081620003ab565b8114620003cc57600080fd5b50565b600081519050620003e081620003b5565b92915050565b600073ffffffffffffffffffffffffffffffffffffffff82169050919050565b60006200041382620003e6565b9050919050565b620004258162000406565b81146200043157600080fd5b50565b60008151905062000445816200041a565b92915050565b600080600080600060a086880312156200046a576200046962000218565b5b600086015167ffffffffffffffff8111156200048b576200048a6200021d565b5b620004998882890162000378565b9550506020620004ac88828901620003cf565b9450506040620004bf88828901620003cf565b935050606086015167ffffffffffffffff811115620004e357620004e26200021d565b5b620004f18882890162000378565b9250506080620005048882890162000434565b9150509295509295909350565b7f4e487b7100000000000000000000000000000000000000000000000000000000600052602260045260246000fd5b600060028204905060018216806200055957607f821691505b6020821081141562000570576200056f62000511565b5b50919050565b610c0b80620005866000396000f3fe608060405234801561001057600080fd5b50600436106100935760003560e01c80634c060ec5116100665780634c060ec5146100fa5780636fa42261146101185780636ff968c314610136578063b332180b14610154578063c81ba8f01461017057610093565b806306fdde03146100985780632432e5c3146100b65780632b445d78146100d257806336a52a18146100dc575b600080fd5b6100a061018e565b6040516100ad91906107b3565b60405180910390f35b6100d060048036038101906100cb919061091e565b61021c565b005b6100da610309565b005b6100e4610441565b6040516100f191906109a8565b60405180910390f35b610102610467565b60405161010f91906107b3565b60405180910390f35b6101206104f5565b60405161012d91906109dc565b60405180910390f35b61013e6104fb565b60405161014b91906109a8565b60405180910390f35b61016e60048036038101906101699190610a23565b610521565b005b610178610671565b60405161018591906109dc565b60405180910390f35b6000805461019b90610a7f565b80601f01602080910402602001604051908101604052809291908181526020018280546101c790610a7f565b80156102145780601f106101e957610100808354040283529160200191610214565b820191906000526020600020905b8154815290600101906020018083116101f757829003601f168201915b505050505081565b600460009054906101000a900473ffffffffffffffffffffffffffffffffffffffff1673ffffffffffffffffffffffffffffffffffffffff163373ffffffffffffffffffffffffffffffffffffffff16146102ac576040517f08c379a00000000000000000000000000000000000000000000000000000000081526004016102a390610b23565b60405180910390fd5b80600390805190602001906102c2929190610677565b503373ffffffffffffffffffffffffffffffffffffffff167f3ae1cf7f1c1eb36ec0c24d58f3b53f659eb11765219e314000d130684f2fdbe160405160405180910390a250565b600560009054906101000a900473ffffffffffffffffffffffffffffffffffffffff1673ffffffffffffffffffffffffffffffffffffffff163373ffffffffffffffffffffffffffffffffffffffff1614610399576040517f08c379a000000000000000000000000000000000000000000000000000000000815260040161039090610bb5565b60405180910390fd5b600560009054906101000a900473ffffffffffffffffffffffffffffffffffffffff16600460006101000a81548173ffffffffffffffffffffffffffffffffffffffff021916908373ffffffffffffffffffffffffffffffffffffffff1602179055503373ffffffffffffffffffffffffffffffffffffffff167f6e5f35e8104c314f925d0baafd67e814ede64c5b6673a233aa82c023e2451cd860405160405180910390a2565b600460009054906101000a900473ffffffffffffffffffffffffffffffffffffffff1681565b6003805461047490610a7f565b80601f01602080910402602001604051908101604052809291908181526020018280546104a090610a7f565b80156104ed5780601f106104c2576101008083540402835291602001916104ed565b820191906000526020600020905b8154815290600101906020018083116104d057829003601f168201915b505050505081565b60025481565b600560009054906101000a900473ffffffffffffffffffffffffffffffffffffffff1681565b600460009054906101000a900473ffffffffffffffffffffffffffffffffffffffff1673ffffffffffffffffffffffffffffffffffffffff163373ffffffffffffffffffffffffffffffffffffffff16146105b1576040517f08c379a00000000000000000000000000000000000000000000000000000000081526004016105a890610b23565b60405180910390fd5b80600560006101000a81548173ffffffffffffffffffffffffffffffffffffffff021916908373ffffffffffffffffffffffffffffffffffffffff160217905550600560009054906101000a900473ffffffffffffffffffffffffffffffffffffffff1673ffffffffffffffffffffffffffffffffffffffff163373ffffffffffffffffffffffffffffffffffffffff167f3ce7d0c04d2ef9adf7825b41aa982b376bd65267c91603077653811dcce94b7460405160405180910390a350565b60015481565b82805461068390610a7f565b90600052602060002090601f0160209004810192826106a557600085556106ec565b82601f106106be57805160ff19168380011785556106ec565b828001600101855582156106ec579182015b828111156106eb5782518255916020019190600101906106d0565b5b5090506106f991906106fd565b5090565b5b808211156107165760008160009055506001016106fe565b5090565b600081519050919050565b600082825260208201905092915050565b60005b83811015610754578082015181840152602081019050610739565b83811115610763576000848401525b50505050565b6000601f19601f8301169050919050565b60006107858261071a565b61078f8185610725565b935061079f818560208601610736565b6107a881610769565b840191505092915050565b600060208201905081810360008301526107cd818461077a565b905092915050565b6000604051905090565b600080fd5b600080fd5b600080fd5b600080fd5b7f4e487b7100000000000000000000000000000000000000000000000000000000600052604160045260246000fd5b61082b82610769565b810181811067ffffffffffffffff8211171561084a576108496107f3565b5b80604052505050565b600061085d6107d5565b90506108698282610822565b919050565b600067ffffffffffffffff821115610889576108886107f3565b5b61089282610769565b9050602081019050919050565b82818337600083830152505050565b60006108c16108bc8461086e565b610853565b9050828152602081018484840111156108dd576108dc6107ee565b5b6108e884828561089f565b509392505050565b600082601f830112610905576109046107e9565b5b81356109158482602086016108ae565b91505092915050565b600060208284031215610934576109336107df565b5b600082013567ffffffffffffffff811115610952576109516107e4565b5b61095e848285016108f0565b91505092915050565b600073ffffffffffffffffffffffffffffffffffffffff82169050919050565b600061099282610967565b9050919050565b6109a281610987565b82525050565b60006020820190506109bd6000830184610999565b92915050565b6000819050919050565b6109d6816109c3565b82525050565b60006020820190506109f160008301846109cd565b92915050565b610a0081610987565b8114610a0b57600080fd5b50565b600081359050610a1d816109f7565b92915050565b600060208284031215610a3957610a386107df565b5b6000610a4784828501610a0e565b91505092915050565b7f4e487b7100000000000000000000000000000000000000000000000000000000600052602260045260246000fd5b60006002820490506001821680610a9757607f821691505b60208210811415610aab57610aaa610a50565b5b50919050565b7f47726176653a2063616c6c6572206973206e6f742074686520696e686572697460008201527f6f72000000000000000000000000000000000000000000000000000000000000602082015250565b6000610b0d602283610725565b9150610b1882610ab1565b604082019050919050565b60006020820190508181036000830152610b3c81610b00565b9050919050565b7f47726176653a2063616c6c6572206973206e6f7420746865207375636365737360008201527f6f72000000000000000000000000000000000000000000000000000000000000602082015250565b6000610b9f602283610725565b9150610baa82610b43565b604082019050919050565b60006020820190508181036000830152610bce81610b92565b905091905056fea264697066735822122083f72d1d28fca114c65121a79b0da9cd1dea2e5974ca1cccbe6929667a355f3264736f6c634300080b0033a2646970667358221220c0360497e7137ece207e69b43f606046465503e9d9d03cc49e4abc68b739a62c64736f6c634300080b0033",
  "immutableReferences": {},
  "source": "// SPDX-License-Identifier: MIT\npragma solidity >=0.4.22 <0.9.0;\n\nimport \"./Grave.sol\";\n\ncontract GraveFactory {\n    event CreatedGrave(Grave indexed grave, address indexed inheritor);\n\n    mapping(address => Grave[]) private _graves;\n    uint256 constant maxLimit = 20;\n\n    constructor() { }\n\n    function associatedGravesCount() public view returns(uint256) {\n        return _graves[msg.sender].length;\n    }\n\n    function createGrave(string memory name, int256 birth, int256 death, string memory portraitURL) public {\n        Grave grave = new Grave(name, birth, death, portraitURL, msg.sender);\n        _graves[msg.sender].push(grave);\n        emit CreatedGrave(grave, msg.sender);\n    }\n\n    function associatedGraves(uint256 limit, uint256 offset) public view returns(Grave[] memory coll) {\n        uint256 count = associatedGravesCount();\n        uint256 start = count - offset < 0 ? count : offset;\n        uint256 currentLimit = limit > maxLimit ? maxLimit : limit;\n        uint256 end = offset + currentLimit < count ? offset + currentLimit : count;\n\n        coll = new Grave[](end - start);\n\n        for(uint256 i=0; i+start<end; i++) {\n            coll[i] = _graves[msg.sender][i+start];\n        }\n        return coll;\n    }\n\n    function associateGrave(address graveAddress) public {\n        _graves[msg.sender].push(Grave(graveAddress));\n    }\n}",
  "sourcePath": "/work/digital-cemetery/contracts/GraveFactory.sol",
  "compiler": {
    "name": "solc",
    "version": "0.8.11+commit.d7f03943.Emscripten.clang"
  },
  "schemaVersion": "3.4.4",
  "updatedAt": "2022-02-17T12:31:20.629Z",
  "networkType": "ethereum",
  "devdoc": {
    "kind": "dev",
    "methods": {},
    "version": 1
  },
  "userdoc": {
    "kind": "user",
    "methods": {},
    "version": 1
  }
}