{
  "contractName": "Grave",
  "abi": [
    {
      "inputs": [
        {
          "internalType": "string",
          "name": "_name",
          "type": "string"
        },
        {
          "internalType": "int256",
          "name": "_birth",
          "type": "int256"
        },
        {
          "internalType": "int256",
          "name": "_death",
          "type": "int256"
        },
        {
          "internalType": "string",
          "name": "_portraitURL",
          "type": "string"
        },
        {
          "internalType": "string",
          "name": "_epigraph",
          "type": "string"
        },
        {
          "internalType": "address",
          "name": "_inheritor",
          "type": "address"
        }
      ],
      "stateMutability": "nonpayable",
      "type": "constructor"
    },
    {
      "anonymous": false,
      "inputs": [
        {
          "indexed": true,
          "internalType": "contract Grave",
          "name": "grave",
          "type": "address"
        },
        {
          "indexed": true,
          "internalType": "address",
          "name": "inheritor",
          "type": "address"
        }
      ],
      "name": "Created",
      "type": "event"
    },
    {
      "anonymous": false,
      "inputs": [
        {
          "indexed": true,
          "internalType": "address",
          "name": "inheritor",
          "type": "address"
        }
      ],
      "name": "Finalized",
      "type": "event"
    },
    {
      "anonymous": false,
      "inputs": [
        {
          "indexed": true,
          "internalType": "address",
          "name": "inheritor",
          "type": "address"
        }
      ],
      "name": "Inherited",
      "type": "event"
    },
    {
      "anonymous": false,
      "inputs": [
        {
          "indexed": true,
          "internalType": "address",
          "name": "inheritor",
          "type": "address"
        },
        {
          "indexed": true,
          "internalType": "address",
          "name": "successor",
          "type": "address"
        }
      ],
      "name": "Nominated",
      "type": "event"
    },
    {
      "anonymous": false,
      "inputs": [
        {
          "indexed": true,
          "internalType": "address",
          "name": "inheritor",
          "type": "address"
        }
      ],
      "name": "PortraitUpdated",
      "type": "event"
    },
    {
      "anonymous": false,
      "inputs": [
        {
          "indexed": true,
          "internalType": "address",
          "name": "prayer",
          "type": "address"
        }
      ],
      "name": "Prayed",
      "type": "event"
    },
    {
      "anonymous": false,
      "inputs": [
        {
          "indexed": true,
          "internalType": "address",
          "name": "inheritor",
          "type": "address"
        }
      ],
      "name": "Updated",
      "type": "event"
    },
    {
      "inputs": [],
      "name": "birth",
      "outputs": [
        {
          "internalType": "int256",
          "name": "",
          "type": "int256"
        }
      ],
      "stateMutability": "view",
      "type": "function"
    },
    {
      "inputs": [],
      "name": "death",
      "outputs": [
        {
          "internalType": "int256",
          "name": "",
          "type": "int256"
        }
      ],
      "stateMutability": "view",
      "type": "function"
    },
    {
      "inputs": [],
      "name": "epigraph",
      "outputs": [
        {
          "internalType": "string",
          "name": "",
          "type": "string"
        }
      ],
      "stateMutability": "view",
      "type": "function"
    },
    {
      "inputs": [],
      "name": "inheritor",
      "outputs": [
        {
          "internalType": "address",
          "name": "",
          "type": "address"
        }
      ],
      "stateMutability": "view",
      "type": "function"
    },
    {
      "inputs": [],
      "name": "isFinalized",
      "outputs": [
        {
          "internalType": "bool",
          "name": "",
          "type": "bool"
        }
      ],
      "stateMutability": "view",
      "type": "function"
    },
    {
      "inputs": [],
      "name": "name",
      "outputs": [
        {
          "internalType": "string",
          "name": "",
          "type": "string"
        }
      ],
      "stateMutability": "view",
      "type": "function"
    },
    {
      "inputs": [],
      "name": "portraitURL",
      "outputs": [
        {
          "internalType": "string",
          "name": "",
          "type": "string"
        }
      ],
      "stateMutability": "view",
      "type": "function"
    },
    {
      "inputs": [],
      "name": "prayed",
      "outputs": [
        {
          "internalType": "uint256",
          "name": "",
          "type": "uint256"
        }
      ],
      "stateMutability": "view",
      "type": "function"
    },
    {
      "inputs": [],
      "name": "successor",
      "outputs": [
        {
          "internalType": "address",
          "name": "",
          "type": "address"
        }
      ],
      "stateMutability": "view",
      "type": "function"
    },
    {
      "inputs": [],
      "name": "finalize",
      "outputs": [],
      "stateMutability": "nonpayable",
      "type": "function"
    },
    {
      "inputs": [
        {
          "internalType": "string",
          "name": "_portraitURL",
          "type": "string"
        }
      ],
      "name": "setPortraitURL",
      "outputs": [],
      "stateMutability": "nonpayable",
      "type": "function"
    },
    {
      "inputs": [
        {
          "internalType": "string",
          "name": "_name",
          "type": "string"
        },
        {
          "internalType": "int256",
          "name": "_birth",
          "type": "int256"
        },
        {
          "internalType": "int256",
          "name": "_death",
          "type": "int256"
        },
        {
          "internalType": "string",
          "name": "_portraitURL",
          "type": "string"
        },
        {
          "internalType": "string",
          "name": "_epigraph",
          "type": "string"
        }
      ],
      "name": "update",
      "outputs": [],
      "stateMutability": "nonpayable",
      "type": "function"
    },
    {
      "inputs": [],
      "name": "inherit",
      "outputs": [],
      "stateMutability": "nonpayable",
      "type": "function"
    },
    {
      "inputs": [
        {
          "internalType": "address",
          "name": "_successor",
          "type": "address"
        }
      ],
      "name": "nominate",
      "outputs": [],
      "stateMutability": "nonpayable",
      "type": "function"
    },
    {
      "inputs": [],
      "name": "pray",
      "outputs": [],
      "stateMutability": "nonpayable",
      "type": "function"
    }
  ],
  "bytecode": "0x60806040523480156200001157600080fd5b506040516200191d3803806200191d833981810160405281019062000037919062000488565b85600090805190602001906200004f9291906200019b565b5084600181905550836002819055508260039080519060200190620000769291906200019b565b5081600490805190602001906200008f9291906200019b565b5080600760006101000a81548173ffffffffffffffffffffffffffffffffffffffff021916908373ffffffffffffffffffffffffffffffffffffffff16021790555080600660006101000a81548173ffffffffffffffffffffffffffffffffffffffff021916908373ffffffffffffffffffffffffffffffffffffffff16021790555060006005819055506000600760146101000a81548160ff0219169083151502179055508073ffffffffffffffffffffffffffffffffffffffff163073ffffffffffffffffffffffffffffffffffffffff167f587ece4cd19692c5be1a4184503d607d45542d2aca0698c0068f52e09ccb541c60405160405180910390a3505050505050620005e6565b828054620001a990620005b0565b90600052602060002090601f016020900481019282620001cd576000855562000219565b82601f10620001e857805160ff191683800117855562000219565b8280016001018555821562000219579182015b8281111562000218578251825591602001919060010190620001fb565b5b5090506200022891906200022c565b5090565b5b80821115620002475760008160009055506001016200022d565b5090565b6000604051905090565b600080fd5b600080fd5b600080fd5b600080fd5b6000601f19601f8301169050919050565b7f4e487b7100000000000000000000000000000000000000000000000000000000600052604160045260246000fd5b620002b48262000269565b810181811067ffffffffffffffff82111715620002d657620002d56200027a565b5b80604052505050565b6000620002eb6200024b565b9050620002f98282620002a9565b919050565b600067ffffffffffffffff8211156200031c576200031b6200027a565b5b620003278262000269565b9050602081019050919050565b60005b838110156200035457808201518184015260208101905062000337565b8381111562000364576000848401525b50505050565b6000620003816200037b84620002fe565b620002df565b905082815260208101848484011115620003a0576200039f62000264565b5b620003ad84828562000334565b509392505050565b600082601f830112620003cd57620003cc6200025f565b5b8151620003df8482602086016200036a565b91505092915050565b6000819050919050565b620003fd81620003e8565b81146200040957600080fd5b50565b6000815190506200041d81620003f2565b92915050565b600073ffffffffffffffffffffffffffffffffffffffff82169050919050565b6000620004508262000423565b9050919050565b620004628162000443565b81146200046e57600080fd5b50565b600081519050620004828162000457565b92915050565b60008060008060008060c08789031215620004a857620004a762000255565b5b600087015167ffffffffffffffff811115620004c957620004c86200025a565b5b620004d789828a01620003b5565b9650506020620004ea89828a016200040c565b9550506040620004fd89828a016200040c565b945050606087015167ffffffffffffffff8111156200052157620005206200025a565b5b6200052f89828a01620003b5565b935050608087015167ffffffffffffffff8111156200055357620005526200025a565b5b6200056189828a01620003b5565b92505060a06200057489828a0162000471565b9150509295509295509295565b7f4e487b7100000000000000000000000000000000000000000000000000000000600052602260045260246000fd5b60006002820490506001821680620005c957607f821691505b60208210811415620005e057620005df62000581565b5b50919050565b61132780620005f66000396000f3fe608060405234801561001057600080fd5b50600436106100f55760003560e01c80636f4327ae116100975780638d4e4083116100665780638d4e408314610204578063b332180b14610222578063c81ba8f01461023e578063cdd72a651461025c576100f5565b80636f4327ae1461018e5780636fa42261146101aa5780636ff968c3146101c8578063855934f6146101e6576100f5565b806336a52a18116100d357806336a52a181461013e578063419905e51461015c5780634bb278f3146101665780634c060ec514610170576100f5565b806306fdde03146100fa5780632432e5c3146101185780632b445d7814610134575b600080fd5b61010261027a565b60405161010f9190610c60565b60405180910390f35b610132600480360381019061012d9190610dcb565b610308565b005b61013c6103f5565b005b61014661052d565b6040516101539190610e55565b60405180910390f35b610164610553565b005b61016e6105b0565b005b6101786106f0565b6040516101859190610c60565b60405180910390f35b6101a860048036038101906101a39190610ea6565b61077e565b005b6101b26108fb565b6040516101bf9190610f84565b60405180910390f35b6101d0610901565b6040516101dd9190610e55565b60405180910390f35b6101ee610927565b6040516101fb9190610c60565b60405180910390f35b61020c6109b5565b6040516102199190610fba565b60405180910390f35b61023c60048036038101906102379190611001565b6109c8565b005b610246610b18565b6040516102539190610f84565b60405180910390f35b610264610b1e565b6040516102719190611047565b60405180910390f35b6000805461028790611091565b80601f01602080910402602001604051908101604052809291908181526020018280546102b390611091565b80156103005780601f106102d557610100808354040283529160200191610300565b820191906000526020600020905b8154815290600101906020018083116102e357829003601f168201915b505050505081565b600660009054906101000a900473ffffffffffffffffffffffffffffffffffffffff1673ffffffffffffffffffffffffffffffffffffffff163373ffffffffffffffffffffffffffffffffffffffff1614610398576040517f08c379a000000000000000000000000000000000000000000000000000000000815260040161038f90611135565b60405180910390fd5b80600390805190602001906103ae929190610b24565b503373ffffffffffffffffffffffffffffffffffffffff167f3ae1cf7f1c1eb36ec0c24d58f3b53f659eb11765219e314000d130684f2fdbe160405160405180910390a250565b600760009054906101000a900473ffffffffffffffffffffffffffffffffffffffff1673ffffffffffffffffffffffffffffffffffffffff163373ffffffffffffffffffffffffffffffffffffffff1614610485576040517f08c379a000000000000000000000000000000000000000000000000000000000815260040161047c906111c7565b60405180910390fd5b600760009054906101000a900473ffffffffffffffffffffffffffffffffffffffff16600660006101000a81548173ffffffffffffffffffffffffffffffffffffffff021916908373ffffffffffffffffffffffffffffffffffffffff1602179055503373ffffffffffffffffffffffffffffffffffffffff167f6e5f35e8104c314f925d0baafd67e814ede64c5b6673a233aa82c023e2451cd860405160405180910390a2565b600660009054906101000a900473ffffffffffffffffffffffffffffffffffffffff1681565b6005600081548092919061056690611216565b91905055503373ffffffffffffffffffffffffffffffffffffffff167fecc46e7b5553b28cd948aa516f075200721a4f2ddcbc4b68a41f61c51909fdef60405160405180910390a2565b600660009054906101000a900473ffffffffffffffffffffffffffffffffffffffff1673ffffffffffffffffffffffffffffffffffffffff163373ffffffffffffffffffffffffffffffffffffffff1614610640576040517f08c379a000000000000000000000000000000000000000000000000000000000815260040161063790611135565b60405180910390fd5b600760149054906101000a900460ff1615610690576040517f08c379a0000000000000000000000000000000000000000000000000000000008152600401610687906112d1565b60405180910390fd5b6001600760146101000a81548160ff0219169083151502179055503373ffffffffffffffffffffffffffffffffffffffff167f8e500951de09bcc6854e88c0810bafb819503505895751e657a92df6578d3d9960405160405180910390a2565b600380546106fd90611091565b80601f016020809104026020016040519081016040528092919081815260200182805461072990611091565b80156107765780601f1061074b57610100808354040283529160200191610776565b820191906000526020600020905b81548152906001019060200180831161075957829003601f168201915b505050505081565b600660009054906101000a900473ffffffffffffffffffffffffffffffffffffffff1673ffffffffffffffffffffffffffffffffffffffff163373ffffffffffffffffffffffffffffffffffffffff161461080e576040517f08c379a000000000000000000000000000000000000000000000000000000000815260040161080590611135565b60405180910390fd5b600760149054906101000a900460ff161561085e576040517f08c379a0000000000000000000000000000000000000000000000000000000008152600401610855906112d1565b60405180910390fd5b8460009080519060200190610874929190610b24565b5083600181905550826002819055508160039080519060200190610899929190610b24565b5080600490805190602001906108b0929190610b24565b503373ffffffffffffffffffffffffffffffffffffffff167fe00da2178806f37f69815e9ed5ed3072ec1d55206d60916d99b469c7daa421e460405160405180910390a25050505050565b60025481565b600760009054906101000a900473ffffffffffffffffffffffffffffffffffffffff1681565b6004805461093490611091565b80601f016020809104026020016040519081016040528092919081815260200182805461096090611091565b80156109ad5780601f10610982576101008083540402835291602001916109ad565b820191906000526020600020905b81548152906001019060200180831161099057829003601f168201915b505050505081565b600760149054906101000a900460ff1681565b600660009054906101000a900473ffffffffffffffffffffffffffffffffffffffff1673ffffffffffffffffffffffffffffffffffffffff163373ffffffffffffffffffffffffffffffffffffffff1614610a58576040517f08c379a0000000000000000000000000000000000000000000000000000000008152600401610a4f90611135565b60405180910390fd5b80600760006101000a81548173ffffffffffffffffffffffffffffffffffffffff021916908373ffffffffffffffffffffffffffffffffffffffff160217905550600760009054906101000a900473ffffffffffffffffffffffffffffffffffffffff1673ffffffffffffffffffffffffffffffffffffffff163373ffffffffffffffffffffffffffffffffffffffff167f3ce7d0c04d2ef9adf7825b41aa982b376bd65267c91603077653811dcce94b7460405160405180910390a350565b60015481565b60055481565b828054610b3090611091565b90600052602060002090601f016020900481019282610b525760008555610b99565b82601f10610b6b57805160ff1916838001178555610b99565b82800160010185558215610b99579182015b82811115610b98578251825591602001919060010190610b7d565b5b509050610ba69190610baa565b5090565b5b80821115610bc3576000816000905550600101610bab565b5090565b600081519050919050565b600082825260208201905092915050565b60005b83811015610c01578082015181840152602081019050610be6565b83811115610c10576000848401525b50505050565b6000601f19601f8301169050919050565b6000610c3282610bc7565b610c3c8185610bd2565b9350610c4c818560208601610be3565b610c5581610c16565b840191505092915050565b60006020820190508181036000830152610c7a8184610c27565b905092915050565b6000604051905090565b600080fd5b600080fd5b600080fd5b600080fd5b7f4e487b7100000000000000000000000000000000000000000000000000000000600052604160045260246000fd5b610cd882610c16565b810181811067ffffffffffffffff82111715610cf757610cf6610ca0565b5b80604052505050565b6000610d0a610c82565b9050610d168282610ccf565b919050565b600067ffffffffffffffff821115610d3657610d35610ca0565b5b610d3f82610c16565b9050602081019050919050565b82818337600083830152505050565b6000610d6e610d6984610d1b565b610d00565b905082815260208101848484011115610d8a57610d89610c9b565b5b610d95848285610d4c565b509392505050565b600082601f830112610db257610db1610c96565b5b8135610dc2848260208601610d5b565b91505092915050565b600060208284031215610de157610de0610c8c565b5b600082013567ffffffffffffffff811115610dff57610dfe610c91565b5b610e0b84828501610d9d565b91505092915050565b600073ffffffffffffffffffffffffffffffffffffffff82169050919050565b6000610e3f82610e14565b9050919050565b610e4f81610e34565b82525050565b6000602082019050610e6a6000830184610e46565b92915050565b6000819050919050565b610e8381610e70565b8114610e8e57600080fd5b50565b600081359050610ea081610e7a565b92915050565b600080600080600060a08688031215610ec257610ec1610c8c565b5b600086013567ffffffffffffffff811115610ee057610edf610c91565b5b610eec88828901610d9d565b9550506020610efd88828901610e91565b9450506040610f0e88828901610e91565b935050606086013567ffffffffffffffff811115610f2f57610f2e610c91565b5b610f3b88828901610d9d565b925050608086013567ffffffffffffffff811115610f5c57610f5b610c91565b5b610f6888828901610d9d565b9150509295509295909350565b610f7e81610e70565b82525050565b6000602082019050610f996000830184610f75565b92915050565b60008115159050919050565b610fb481610f9f565b82525050565b6000602082019050610fcf6000830184610fab565b92915050565b610fde81610e34565b8114610fe957600080fd5b50565b600081359050610ffb81610fd5565b92915050565b60006020828403121561101757611016610c8c565b5b600061102584828501610fec565b91505092915050565b6000819050919050565b6110418161102e565b82525050565b600060208201905061105c6000830184611038565b92915050565b7f4e487b7100000000000000000000000000000000000000000000000000000000600052602260045260246000fd5b600060028204905060018216806110a957607f821691505b602082108114156110bd576110bc611062565b5b50919050565b7f47726176653a2063616c6c6572206973206e6f742074686520696e686572697460008201527f6f72000000000000000000000000000000000000000000000000000000000000602082015250565b600061111f602283610bd2565b915061112a826110c3565b604082019050919050565b6000602082019050818103600083015261114e81611112565b9050919050565b7f47726176653a2063616c6c6572206973206e6f7420746865207375636365737360008201527f6f72000000000000000000000000000000000000000000000000000000000000602082015250565b60006111b1602283610bd2565b91506111bc82611155565b604082019050919050565b600060208201905081810360008301526111e0816111a4565b9050919050565b7f4e487b7100000000000000000000000000000000000000000000000000000000600052601160045260246000fd5b60006112218261102e565b91507fffffffffffffffffffffffffffffffffffffffffffffffffffffffffffffffff821415611254576112536111e7565b5b600182019050919050565b7f47726176653a206974277320616c7265616479206265656e2066696e616c697a60008201527f6564000000000000000000000000000000000000000000000000000000000000602082015250565b60006112bb602283610bd2565b91506112c68261125f565b604082019050919050565b600060208201905081810360008301526112ea816112ae565b905091905056fea2646970667358221220eae13129230f09b7df1d169295338505a3dfa32a24892c58ece84c8845080e6364736f6c634300080b0033",
  "immutableReferences": {},
  "source": "// SPDX-License-Identifier: MIT\npragma solidity >=0.4.22 <0.9.0;\n\ncontract Grave {\n    event Created(Grave indexed grave, address indexed inheritor);\n    event Prayed(address indexed prayer);\n    event PortraitUpdated(address indexed inheritor);\n    event Updated(address indexed inheritor);\n    event Finalized(address indexed inheritor);\n    event Inherited(address indexed inheritor);\n    event Nominated(address indexed inheritor, address indexed successor);\n\n    modifier onlyInheritor() {\n        require(msg.sender == inheritor, \"Grave: caller is not the inheritor\");\n        _;\n    }\n\n    modifier onlySuccessor() {\n        require(msg.sender == successor, \"Grave: caller is not the successor\");\n        _;\n    }\n\n    modifier beforeFinalized() {\n        require(!isFinalized, \"Grave: it's already been finalized\");\n        _;\n    }\n\n    string public name;\n    int256 public birth;\n    int256 public death;\n    string public portraitURL;\n    string public epigraph;\n    uint256 public prayed;\n    address public inheritor;\n    address public successor;\n    bool public isFinalized;\n\n    constructor(string memory _name, int256 _birth, int256 _death, string memory _portraitURL, string memory _epigraph, address _inheritor) {\n        name = _name;\n        birth = _birth;\n        death = _death;\n        portraitURL = _portraitURL;\n        epigraph = _epigraph;\n        successor = _inheritor;\n        inheritor = _inheritor;\n        prayed = 0;\n        isFinalized = false;\n        emit Created(this, _inheritor);\n    }\n\n    function finalize() public onlyInheritor beforeFinalized {\n        isFinalized = true;\n        emit Finalized(msg.sender);\n    }\n\n    function setPortraitURL(string memory _portraitURL) public onlyInheritor {\n        portraitURL = _portraitURL;\n        emit PortraitUpdated(msg.sender);\n    }\n\n    function update(string memory _name, int256 _birth, int256 _death, string memory _portraitURL, string memory _epigraph) public onlyInheritor beforeFinalized {\n        name = _name;\n        birth = _birth;\n        death = _death;\n        portraitURL = _portraitURL;\n        epigraph = _epigraph;\n        emit Updated(msg.sender);\n    }\n\n    function inherit() public onlySuccessor {\n        inheritor = successor;\n        emit Inherited(msg.sender);\n    }\n\n    function nominate(address _successor) public onlyInheritor {\n        successor = _successor;\n        emit Nominated(msg.sender, successor);\n    }\n\n    function pray() public {\n        prayed++;\n        emit Prayed(msg.sender);\n    }\n}",
  "sourcePath": "/work/digital-cemetery/contracts/Grave.sol",
  "compiler": {
    "name": "solc",
    "version": "0.8.11+commit.d7f03943.Emscripten.clang"
  },
  "schemaVersion": "3.4.4",
  "updatedAt": "2022-02-21T11:42:37.262Z",
  "devdoc": {
    "kind": "dev",
    "methods": {},
    "version": 1
  },
  "userdoc": {
    "kind": "user",
    "methods": {},
    "version": 1
  }
}