{
  "contractName": "Grave",
  "abi": [
    {
      "inputs": [
        {
          "internalType": "string",
          "name": "_name",
          "type": "string"
        },
        {
          "internalType": "int256",
          "name": "_birth",
          "type": "int256"
        },
        {
          "internalType": "int256",
          "name": "_death",
          "type": "int256"
        },
        {
          "internalType": "string",
          "name": "_portraitURL",
          "type": "string"
        },
        {
          "internalType": "string",
          "name": "_epigraph",
          "type": "string"
        },
        {
          "internalType": "address",
          "name": "_inheritor",
          "type": "address"
        }
      ],
      "stateMutability": "nonpayable",
      "type": "constructor"
    },
    {
      "anonymous": false,
      "inputs": [
        {
          "indexed": true,
          "internalType": "contract Grave",
          "name": "grave",
          "type": "address"
        },
        {
          "indexed": true,
          "internalType": "address",
          "name": "inheritor",
          "type": "address"
        }
      ],
      "name": "Created",
      "type": "event"
    },
    {
      "anonymous": false,
      "inputs": [
        {
          "indexed": true,
          "internalType": "address",
          "name": "inheritor",
          "type": "address"
        }
      ],
      "name": "EpigraphUpdated",
      "type": "event"
    },
    {
      "anonymous": false,
      "inputs": [
        {
          "indexed": true,
          "internalType": "address",
          "name": "inheritor",
          "type": "address"
        }
      ],
      "name": "Inherited",
      "type": "event"
    },
    {
      "anonymous": false,
      "inputs": [
        {
          "indexed": true,
          "internalType": "address",
          "name": "inheritor",
          "type": "address"
        },
        {
          "indexed": true,
          "internalType": "address",
          "name": "successor",
          "type": "address"
        }
      ],
      "name": "Nominated",
      "type": "event"
    },
    {
      "anonymous": false,
      "inputs": [
        {
          "indexed": true,
          "internalType": "address",
          "name": "inheritor",
          "type": "address"
        }
      ],
      "name": "PortraitUpdated",
      "type": "event"
    },
    {
      "anonymous": false,
      "inputs": [
        {
          "indexed": true,
          "internalType": "address",
          "name": "prayer",
          "type": "address"
        }
      ],
      "name": "Prayed",
      "type": "event"
    },
    {
      "inputs": [],
      "name": "birth",
      "outputs": [
        {
          "internalType": "int256",
          "name": "",
          "type": "int256"
        }
      ],
      "stateMutability": "view",
      "type": "function"
    },
    {
      "inputs": [],
      "name": "death",
      "outputs": [
        {
          "internalType": "int256",
          "name": "",
          "type": "int256"
        }
      ],
      "stateMutability": "view",
      "type": "function"
    },
    {
      "inputs": [],
      "name": "epigraph",
      "outputs": [
        {
          "internalType": "string",
          "name": "",
          "type": "string"
        }
      ],
      "stateMutability": "view",
      "type": "function"
    },
    {
      "inputs": [],
      "name": "inheritor",
      "outputs": [
        {
          "internalType": "address",
          "name": "",
          "type": "address"
        }
      ],
      "stateMutability": "view",
      "type": "function"
    },
    {
      "inputs": [],
      "name": "name",
      "outputs": [
        {
          "internalType": "string",
          "name": "",
          "type": "string"
        }
      ],
      "stateMutability": "view",
      "type": "function"
    },
    {
      "inputs": [],
      "name": "portraitURL",
      "outputs": [
        {
          "internalType": "string",
          "name": "",
          "type": "string"
        }
      ],
      "stateMutability": "view",
      "type": "function"
    },
    {
      "inputs": [],
      "name": "prayed",
      "outputs": [
        {
          "internalType": "uint256",
          "name": "",
          "type": "uint256"
        }
      ],
      "stateMutability": "view",
      "type": "function"
    },
    {
      "inputs": [],
      "name": "successor",
      "outputs": [
        {
          "internalType": "address",
          "name": "",
          "type": "address"
        }
      ],
      "stateMutability": "view",
      "type": "function"
    },
    {
      "inputs": [
        {
          "internalType": "string",
          "name": "_portraitURL",
          "type": "string"
        }
      ],
      "name": "setPortraitURL",
      "outputs": [],
      "stateMutability": "nonpayable",
      "type": "function"
    },
    {
      "inputs": [
        {
          "internalType": "string",
          "name": "_epigraph",
          "type": "string"
        }
      ],
      "name": "setEpigraph",
      "outputs": [],
      "stateMutability": "nonpayable",
      "type": "function"
    },
    {
      "inputs": [],
      "name": "inherit",
      "outputs": [],
      "stateMutability": "nonpayable",
      "type": "function"
    },
    {
      "inputs": [
        {
          "internalType": "address",
          "name": "_successor",
          "type": "address"
        }
      ],
      "name": "nominate",
      "outputs": [],
      "stateMutability": "nonpayable",
      "type": "function"
    },
    {
      "inputs": [],
      "name": "pray",
      "outputs": [],
      "stateMutability": "nonpayable",
      "type": "function"
    }
  ],
  "bytecode": "0x60806040523480156200001157600080fd5b506040516200150e3803806200150e83398181016040528101906200003791906200046d565b85600090805190602001906200004f92919062000180565b50846001819055508360028190555082600390805190602001906200007692919062000180565b5081600490805190602001906200008f92919062000180565b5080600760006101000a81548173ffffffffffffffffffffffffffffffffffffffff021916908373ffffffffffffffffffffffffffffffffffffffff16021790555080600660006101000a81548173ffffffffffffffffffffffffffffffffffffffff021916908373ffffffffffffffffffffffffffffffffffffffff16021790555060006005819055508073ffffffffffffffffffffffffffffffffffffffff163073ffffffffffffffffffffffffffffffffffffffff167f587ece4cd19692c5be1a4184503d607d45542d2aca0698c0068f52e09ccb541c60405160405180910390a3505050505050620005cb565b8280546200018e9062000595565b90600052602060002090601f016020900481019282620001b25760008555620001fe565b82601f10620001cd57805160ff1916838001178555620001fe565b82800160010185558215620001fe579182015b82811115620001fd578251825591602001919060010190620001e0565b5b5090506200020d919062000211565b5090565b5b808211156200022c57600081600090555060010162000212565b5090565b6000604051905090565b600080fd5b600080fd5b600080fd5b600080fd5b6000601f19601f8301169050919050565b7f4e487b7100000000000000000000000000000000000000000000000000000000600052604160045260246000fd5b62000299826200024e565b810181811067ffffffffffffffff82111715620002bb57620002ba6200025f565b5b80604052505050565b6000620002d062000230565b9050620002de82826200028e565b919050565b600067ffffffffffffffff8211156200030157620003006200025f565b5b6200030c826200024e565b9050602081019050919050565b60005b83811015620003395780820151818401526020810190506200031c565b8381111562000349576000848401525b50505050565b6000620003666200036084620002e3565b620002c4565b90508281526020810184848401111562000385576200038462000249565b5b6200039284828562000319565b509392505050565b600082601f830112620003b257620003b162000244565b5b8151620003c48482602086016200034f565b91505092915050565b6000819050919050565b620003e281620003cd565b8114620003ee57600080fd5b50565b6000815190506200040281620003d7565b92915050565b600073ffffffffffffffffffffffffffffffffffffffff82169050919050565b6000620004358262000408565b9050919050565b620004478162000428565b81146200045357600080fd5b50565b60008151905062000467816200043c565b92915050565b60008060008060008060c087890312156200048d576200048c6200023a565b5b600087015167ffffffffffffffff811115620004ae57620004ad6200023f565b5b620004bc89828a016200039a565b9650506020620004cf89828a01620003f1565b9550506040620004e289828a01620003f1565b945050606087015167ffffffffffffffff8111156200050657620005056200023f565b5b6200051489828a016200039a565b935050608087015167ffffffffffffffff8111156200053857620005376200023f565b5b6200054689828a016200039a565b92505060a06200055989828a0162000456565b9150509295509295509295565b7f4e487b7100000000000000000000000000000000000000000000000000000000600052602260045260246000fd5b60006002820490506001821680620005ae57607f821691505b60208210811415620005c557620005c462000566565b5b50919050565b610f3380620005db6000396000f3fe608060405234801561001057600080fd5b50600436106100cf5760003560e01c80634c060ec51161008c578063855934f611610066578063855934f6146101b6578063b332180b146101d4578063c81ba8f0146101f0578063cdd72a651461020e576100cf565b80634c060ec51461015c5780636fa422611461017a5780636ff968c314610198576100cf565b806306fdde03146100d45780632432e5c3146100f25780632b445d781461010e5780632bd06ed51461011857806336a52a1814610134578063419905e514610152575b600080fd5b6100dc61022c565b6040516100e99190610a2f565b60405180910390f35b61010c60048036038101906101079190610b9a565b6102ba565b005b6101166103a7565b005b610132600480360381019061012d9190610b9a565b6104df565b005b61013c6105cc565b6040516101499190610c24565b60405180910390f35b61015a6105f2565b005b61016461064f565b6040516101719190610a2f565b60405180910390f35b6101826106dd565b60405161018f9190610c58565b60405180910390f35b6101a06106e3565b6040516101ad9190610c24565b60405180910390f35b6101be610709565b6040516101cb9190610a2f565b60405180910390f35b6101ee60048036038101906101e99190610c9f565b610797565b005b6101f86108e7565b6040516102059190610c58565b60405180910390f35b6102166108ed565b6040516102239190610ce5565b60405180910390f35b6000805461023990610d2f565b80601f016020809104026020016040519081016040528092919081815260200182805461026590610d2f565b80156102b25780601f10610287576101008083540402835291602001916102b2565b820191906000526020600020905b81548152906001019060200180831161029557829003601f168201915b505050505081565b600660009054906101000a900473ffffffffffffffffffffffffffffffffffffffff1673ffffffffffffffffffffffffffffffffffffffff163373ffffffffffffffffffffffffffffffffffffffff161461034a576040517f08c379a000000000000000000000000000000000000000000000000000000000815260040161034190610dd3565b60405180910390fd5b80600390805190602001906103609291906108f3565b503373ffffffffffffffffffffffffffffffffffffffff167f3ae1cf7f1c1eb36ec0c24d58f3b53f659eb11765219e314000d130684f2fdbe160405160405180910390a250565b600760009054906101000a900473ffffffffffffffffffffffffffffffffffffffff1673ffffffffffffffffffffffffffffffffffffffff163373ffffffffffffffffffffffffffffffffffffffff1614610437576040517f08c379a000000000000000000000000000000000000000000000000000000000815260040161042e90610e65565b60405180910390fd5b600760009054906101000a900473ffffffffffffffffffffffffffffffffffffffff16600660006101000a81548173ffffffffffffffffffffffffffffffffffffffff021916908373ffffffffffffffffffffffffffffffffffffffff1602179055503373ffffffffffffffffffffffffffffffffffffffff167f6e5f35e8104c314f925d0baafd67e814ede64c5b6673a233aa82c023e2451cd860405160405180910390a2565b600660009054906101000a900473ffffffffffffffffffffffffffffffffffffffff1673ffffffffffffffffffffffffffffffffffffffff163373ffffffffffffffffffffffffffffffffffffffff161461056f576040517f08c379a000000000000000000000000000000000000000000000000000000000815260040161056690610dd3565b60405180910390fd5b80600490805190602001906105859291906108f3565b503373ffffffffffffffffffffffffffffffffffffffff167ff569a77326eb10185381d6874d0d5dfbedcb5a6ec0fe2a5d5f2a30758c242f0260405160405180910390a250565b600660009054906101000a900473ffffffffffffffffffffffffffffffffffffffff1681565b6005600081548092919061060590610eb4565b91905055503373ffffffffffffffffffffffffffffffffffffffff167fecc46e7b5553b28cd948aa516f075200721a4f2ddcbc4b68a41f61c51909fdef60405160405180910390a2565b6003805461065c90610d2f565b80601f016020809104026020016040519081016040528092919081815260200182805461068890610d2f565b80156106d55780601f106106aa576101008083540402835291602001916106d5565b820191906000526020600020905b8154815290600101906020018083116106b857829003601f168201915b505050505081565b60025481565b600760009054906101000a900473ffffffffffffffffffffffffffffffffffffffff1681565b6004805461071690610d2f565b80601f016020809104026020016040519081016040528092919081815260200182805461074290610d2f565b801561078f5780601f106107645761010080835404028352916020019161078f565b820191906000526020600020905b81548152906001019060200180831161077257829003601f168201915b505050505081565b600660009054906101000a900473ffffffffffffffffffffffffffffffffffffffff1673ffffffffffffffffffffffffffffffffffffffff163373ffffffffffffffffffffffffffffffffffffffff1614610827576040517f08c379a000000000000000000000000000000000000000000000000000000000815260040161081e90610dd3565b60405180910390fd5b80600760006101000a81548173ffffffffffffffffffffffffffffffffffffffff021916908373ffffffffffffffffffffffffffffffffffffffff160217905550600760009054906101000a900473ffffffffffffffffffffffffffffffffffffffff1673ffffffffffffffffffffffffffffffffffffffff163373ffffffffffffffffffffffffffffffffffffffff167f3ce7d0c04d2ef9adf7825b41aa982b376bd65267c91603077653811dcce94b7460405160405180910390a350565b60015481565b60055481565b8280546108ff90610d2f565b90600052602060002090601f0160209004810192826109215760008555610968565b82601f1061093a57805160ff1916838001178555610968565b82800160010185558215610968579182015b8281111561096757825182559160200191906001019061094c565b5b5090506109759190610979565b5090565b5b8082111561099257600081600090555060010161097a565b5090565b600081519050919050565b600082825260208201905092915050565b60005b838110156109d05780820151818401526020810190506109b5565b838111156109df576000848401525b50505050565b6000601f19601f8301169050919050565b6000610a0182610996565b610a0b81856109a1565b9350610a1b8185602086016109b2565b610a24816109e5565b840191505092915050565b60006020820190508181036000830152610a4981846109f6565b905092915050565b6000604051905090565b600080fd5b600080fd5b600080fd5b600080fd5b7f4e487b7100000000000000000000000000000000000000000000000000000000600052604160045260246000fd5b610aa7826109e5565b810181811067ffffffffffffffff82111715610ac657610ac5610a6f565b5b80604052505050565b6000610ad9610a51565b9050610ae58282610a9e565b919050565b600067ffffffffffffffff821115610b0557610b04610a6f565b5b610b0e826109e5565b9050602081019050919050565b82818337600083830152505050565b6000610b3d610b3884610aea565b610acf565b905082815260208101848484011115610b5957610b58610a6a565b5b610b64848285610b1b565b509392505050565b600082601f830112610b8157610b80610a65565b5b8135610b91848260208601610b2a565b91505092915050565b600060208284031215610bb057610baf610a5b565b5b600082013567ffffffffffffffff811115610bce57610bcd610a60565b5b610bda84828501610b6c565b91505092915050565b600073ffffffffffffffffffffffffffffffffffffffff82169050919050565b6000610c0e82610be3565b9050919050565b610c1e81610c03565b82525050565b6000602082019050610c396000830184610c15565b92915050565b6000819050919050565b610c5281610c3f565b82525050565b6000602082019050610c6d6000830184610c49565b92915050565b610c7c81610c03565b8114610c8757600080fd5b50565b600081359050610c9981610c73565b92915050565b600060208284031215610cb557610cb4610a5b565b5b6000610cc384828501610c8a565b91505092915050565b6000819050919050565b610cdf81610ccc565b82525050565b6000602082019050610cfa6000830184610cd6565b92915050565b7f4e487b7100000000000000000000000000000000000000000000000000000000600052602260045260246000fd5b60006002820490506001821680610d4757607f821691505b60208210811415610d5b57610d5a610d00565b5b50919050565b7f47726176653a2063616c6c6572206973206e6f742074686520696e686572697460008201527f6f72000000000000000000000000000000000000000000000000000000000000602082015250565b6000610dbd6022836109a1565b9150610dc882610d61565b604082019050919050565b60006020820190508181036000830152610dec81610db0565b9050919050565b7f47726176653a2063616c6c6572206973206e6f7420746865207375636365737360008201527f6f72000000000000000000000000000000000000000000000000000000000000602082015250565b6000610e4f6022836109a1565b9150610e5a82610df3565b604082019050919050565b60006020820190508181036000830152610e7e81610e42565b9050919050565b7f4e487b7100000000000000000000000000000000000000000000000000000000600052601160045260246000fd5b6000610ebf82610ccc565b91507fffffffffffffffffffffffffffffffffffffffffffffffffffffffffffffffff821415610ef257610ef1610e85565b5b60018201905091905056fea2646970667358221220dbaf5415f958a91dd45cd12d18a941562c78803fb8285fc0e39504c5c4657d7c64736f6c634300080b0033",
  "immutableReferences": {},
  "source": "// SPDX-License-Identifier: MIT\npragma solidity >=0.4.22 <0.9.0;\n\ncontract Grave {\n    event Created(Grave indexed grave, address indexed inheritor);\n    event Prayed(address indexed prayer);\n    event PortraitUpdated(address indexed inheritor);\n    event EpigraphUpdated(address indexed inheritor);\n    event Inherited(address indexed inheritor);\n    event Nominated(address indexed inheritor, address indexed successor);\n\n    modifier onlyInheritor() {\n        require(msg.sender == inheritor, \"Grave: caller is not the inheritor\");\n        _;\n    }\n\n    modifier onlySuccessor() {\n        require(msg.sender == successor, \"Grave: caller is not the successor\");\n        _;\n    }\n\n    string public name;\n    int256 public birth;\n    int256 public death;\n    string public portraitURL;\n    string public epigraph;\n    uint256 public prayed;\n    address public inheritor;\n    address public successor;\n\n    constructor(string memory _name, int256 _birth, int256 _death, string memory _portraitURL, string memory _epigraph, address _inheritor) {\n        name = _name;\n        birth = _birth;\n        death = _death;\n        portraitURL = _portraitURL;\n        epigraph = _epigraph;\n        successor = _inheritor;\n        inheritor = _inheritor;\n        prayed = 0;\n        emit Created(this, _inheritor);\n    }\n\n    function setPortraitURL(string memory _portraitURL) public onlyInheritor {\n        portraitURL = _portraitURL;\n        emit PortraitUpdated(msg.sender);\n    }\n\n    function setEpigraph(string memory _epigraph) public onlyInheritor {\n        epigraph = _epigraph;\n        emit EpigraphUpdated(msg.sender);\n    }\n\n    function inherit() public onlySuccessor {\n        inheritor = successor;\n        emit Inherited(msg.sender);\n    }\n\n    function nominate(address _successor) public onlyInheritor {\n        successor = _successor;\n        emit Nominated(msg.sender, successor);\n    }\n\n    function pray() public {\n        prayed++;\n        emit Prayed(msg.sender);\n    }\n}",
  "sourcePath": "/work/digital-cemetery/contracts/Grave.sol",
  "compiler": {
    "name": "solc",
    "version": "0.8.11+commit.d7f03943.Emscripten.clang"
  },
  "schemaVersion": "3.4.4",
  "updatedAt": "2022-02-19T12:01:40.016Z",
  "devdoc": {
    "kind": "dev",
    "methods": {},
    "version": 1
  },
  "userdoc": {
    "kind": "user",
    "methods": {},
    "version": 1
  }
}