{
  "contractName": "GraveFactory",
  "abi": [
    {
      "inputs": [],
      "stateMutability": "nonpayable",
      "type": "constructor"
    },
    {
      "inputs": [],
      "name": "associatedGravesCount",
      "outputs": [
        {
          "internalType": "uint256",
          "name": "",
          "type": "uint256"
        }
      ],
      "stateMutability": "view",
      "type": "function"
    },
    {
      "inputs": [
        {
          "internalType": "string",
          "name": "name",
          "type": "string"
        },
        {
          "internalType": "int256",
          "name": "birth",
          "type": "int256"
        },
        {
          "internalType": "int256",
          "name": "death",
          "type": "int256"
        },
        {
          "internalType": "string",
          "name": "portraitURL",
          "type": "string"
        }
      ],
      "name": "createGrave",
      "outputs": [],
      "stateMutability": "nonpayable",
      "type": "function"
    },
    {
      "inputs": [
        {
          "internalType": "uint256",
          "name": "limit",
          "type": "uint256"
        },
        {
          "internalType": "uint256",
          "name": "offset",
          "type": "uint256"
        }
      ],
      "name": "associatedGraves",
      "outputs": [
        {
          "internalType": "contract Grave[]",
          "name": "coll",
          "type": "address[]"
        }
      ],
      "stateMutability": "view",
      "type": "function"
    },
    {
      "inputs": [
        {
          "internalType": "address",
          "name": "graveAddress",
          "type": "address"
        }
      ],
      "name": "associateGrave",
      "outputs": [],
      "stateMutability": "nonpayable",
      "type": "function"
    }
  ],
  "bytecode": "0x608060405234801561001057600080fd5b50611dc4806100206000396000f3fe60806040523480156200001157600080fd5b5060043610620000525760003560e01c806347c564901462000057578063a4686fd41462000079578063cf8f18371462000099578063f1cebf8f14620000cf575b600080fd5b62000061620000ef565b604051620000709190620004d7565b60405180910390f35b6200009760048036038101906200009191906200056d565b62000138565b005b620000b76004803603810190620000b19190620005d0565b620001da565b604051620000c691906200073f565b60405180910390f35b620000ed6004803603810190620000e7919062000900565b620003c3565b005b60008060003373ffffffffffffffffffffffffffffffffffffffff1673ffffffffffffffffffffffffffffffffffffffff16815260200190815260200160002080549050905090565b6000803373ffffffffffffffffffffffffffffffffffffffff1673ffffffffffffffffffffffffffffffffffffffff168152602001908152602001600020819080600181540180825580915050600190039060005260206000200160009091909190916101000a81548173ffffffffffffffffffffffffffffffffffffffff021916908373ffffffffffffffffffffffffffffffffffffffff16021790555050565b60606000620001e8620000ef565b90506000808483620001fb9190620009df565b106200020857836200020a565b815b90506000601486116200021e578562000221565b60145b9050600083828762000234919062000a1a565b1062000241578362000250565b81866200024f919062000a1a565b5b90508281620002609190620009df565b67ffffffffffffffff8111156200027c576200027b6200077e565b5b604051908082528060200260200182016040528015620002ab5781602001602082028036833780820191505090505b50945060005b818482620002c0919062000a1a565b1015620003b8576000803373ffffffffffffffffffffffffffffffffffffffff1673ffffffffffffffffffffffffffffffffffffffff168152602001908152602001600020848262000313919062000a1a565b8154811062000327576200032662000a77565b5b9060005260206000200160009054906101000a900473ffffffffffffffffffffffffffffffffffffffff1686828151811062000368576200036762000a77565b5b602002602001019073ffffffffffffffffffffffffffffffffffffffff16908173ffffffffffffffffffffffffffffffffffffffff16815250508080620003af9062000aa6565b915050620002b1565b505050505092915050565b60008484848433604051620003d890620004ae565b620003e895949392919062000ba9565b604051809103906000f08015801562000405573d6000803e3d6000fd5b5090506000803373ffffffffffffffffffffffffffffffffffffffff1673ffffffffffffffffffffffffffffffffffffffff168152602001908152602001600020819080600181540180825580915050600190039060005260206000200160009091909190916101000a81548173ffffffffffffffffffffffffffffffffffffffff021916908373ffffffffffffffffffffffffffffffffffffffff1602179055505050505050565b61117a8062000c1583390190565b6000819050919050565b620004d181620004bc565b82525050565b6000602082019050620004ee6000830184620004c6565b92915050565b6000604051905090565b600080fd5b600080fd5b600073ffffffffffffffffffffffffffffffffffffffff82169050919050565b6000620005358262000508565b9050919050565b620005478162000528565b81146200055357600080fd5b50565b60008135905062000567816200053c565b92915050565b600060208284031215620005865762000585620004fe565b5b6000620005968482850162000556565b91505092915050565b620005aa81620004bc565b8114620005b657600080fd5b50565b600081359050620005ca816200059f565b92915050565b60008060408385031215620005ea57620005e9620004fe565b5b6000620005fa85828601620005b9565b92505060206200060d85828601620005b9565b9150509250929050565b600081519050919050565b600082825260208201905092915050565b6000819050602082019050919050565b6000819050919050565b60006200066e62000668620006628462000508565b62000643565b62000508565b9050919050565b600062000682826200064d565b9050919050565b6000620006968262000675565b9050919050565b620006a88162000689565b82525050565b6000620006bc83836200069d565b60208301905092915050565b6000602082019050919050565b6000620006e28262000617565b620006ee818562000622565b9350620006fb8362000633565b8060005b8381101562000732578151620007168882620006ae565b97506200072383620006c8565b925050600181019050620006ff565b5085935050505092915050565b600060208201905081810360008301526200075b8184620006d5565b905092915050565b600080fd5b600080fd5b6000601f19601f8301169050919050565b7f4e487b7100000000000000000000000000000000000000000000000000000000600052604160045260246000fd5b620007b8826200076d565b810181811067ffffffffffffffff82111715620007da57620007d96200077e565b5b80604052505050565b6000620007ef620004f4565b9050620007fd8282620007ad565b919050565b600067ffffffffffffffff82111562000820576200081f6200077e565b5b6200082b826200076d565b9050602081019050919050565b82818337600083830152505050565b60006200085e620008588462000802565b620007e3565b9050828152602081018484840111156200087d576200087c62000768565b5b6200088a84828562000838565b509392505050565b600082601f830112620008aa57620008a962000763565b5b8135620008bc84826020860162000847565b91505092915050565b6000819050919050565b620008da81620008c5565b8114620008e657600080fd5b50565b600081359050620008fa81620008cf565b92915050565b600080600080608085870312156200091d576200091c620004fe565b5b600085013567ffffffffffffffff8111156200093e576200093d62000503565b5b6200094c8782880162000892565b94505060206200095f87828801620008e9565b93505060406200097287828801620008e9565b925050606085013567ffffffffffffffff81111562000996576200099562000503565b5b620009a48782880162000892565b91505092959194509250565b7f4e487b7100000000000000000000000000000000000000000000000000000000600052601160045260246000fd5b6000620009ec82620004bc565b9150620009f983620004bc565b92508282101562000a0f5762000a0e620009b0565b5b828203905092915050565b600062000a2782620004bc565b915062000a3483620004bc565b9250827fffffffffffffffffffffffffffffffffffffffffffffffffffffffffffffffff0382111562000a6c5762000a6b620009b0565b5b828201905092915050565b7f4e487b7100000000000000000000000000000000000000000000000000000000600052603260045260246000fd5b600062000ab382620004bc565b91507fffffffffffffffffffffffffffffffffffffffffffffffffffffffffffffffff82141562000ae95762000ae8620009b0565b5b600182019050919050565b600081519050919050565b600082825260208201905092915050565b60005b8381101562000b3057808201518184015260208101905062000b13565b8381111562000b40576000848401525b50505050565b600062000b538262000af4565b62000b5f818562000aff565b935062000b7181856020860162000b10565b62000b7c816200076d565b840191505092915050565b62000b9281620008c5565b82525050565b62000ba38162000528565b82525050565b600060a082019050818103600083015262000bc5818862000b46565b905062000bd6602083018762000b87565b62000be5604083018662000b87565b818103606083015262000bf9818562000b46565b905062000c0a608083018462000b98565b969550505050505056fe60806040523480156200001157600080fd5b506040516200117a3803806200117a833981810160405281019062000037919062000434565b84600090805190602001906200004f92919062000147565b50836001819055508260028190555081600390805190602001906200007692919062000147565b5080600560006101000a81548173ffffffffffffffffffffffffffffffffffffffff021916908373ffffffffffffffffffffffffffffffffffffffff16021790555080600460006101000a81548173ffffffffffffffffffffffffffffffffffffffff021916908373ffffffffffffffffffffffffffffffffffffffff1602179055508073ffffffffffffffffffffffffffffffffffffffff167f1449abf21e49fd025f33495e77f7b1461caefdd3d4bb646424a3f445c4576a5b60405160405180910390a250505050506200055f565b828054620001559062000529565b90600052602060002090601f016020900481019282620001795760008555620001c5565b82601f106200019457805160ff1916838001178555620001c5565b82800160010185558215620001c5579182015b82811115620001c4578251825591602001919060010190620001a7565b5b509050620001d49190620001d8565b5090565b5b80821115620001f3576000816000905550600101620001d9565b5090565b6000604051905090565b600080fd5b600080fd5b600080fd5b600080fd5b6000601f19601f8301169050919050565b7f4e487b7100000000000000000000000000000000000000000000000000000000600052604160045260246000fd5b620002608262000215565b810181811067ffffffffffffffff8211171562000282576200028162000226565b5b80604052505050565b600062000297620001f7565b9050620002a5828262000255565b919050565b600067ffffffffffffffff821115620002c857620002c762000226565b5b620002d38262000215565b9050602081019050919050565b60005b8381101562000300578082015181840152602081019050620002e3565b8381111562000310576000848401525b50505050565b60006200032d6200032784620002aa565b6200028b565b9050828152602081018484840111156200034c576200034b62000210565b5b62000359848285620002e0565b509392505050565b600082601f8301126200037957620003786200020b565b5b81516200038b84826020860162000316565b91505092915050565b6000819050919050565b620003a98162000394565b8114620003b557600080fd5b50565b600081519050620003c9816200039e565b92915050565b600073ffffffffffffffffffffffffffffffffffffffff82169050919050565b6000620003fc82620003cf565b9050919050565b6200040e81620003ef565b81146200041a57600080fd5b50565b6000815190506200042e8162000403565b92915050565b600080600080600060a0868803121562000453576200045262000201565b5b600086015167ffffffffffffffff81111562000474576200047362000206565b5b620004828882890162000361565b95505060206200049588828901620003b8565b9450506040620004a888828901620003b8565b935050606086015167ffffffffffffffff811115620004cc57620004cb62000206565b5b620004da8882890162000361565b9250506080620004ed888289016200041d565b9150509295509295909350565b7f4e487b7100000000000000000000000000000000000000000000000000000000600052602260045260246000fd5b600060028204905060018216806200054257607f821691505b60208210811415620005595762000558620004fa565b5b50919050565b610c0b806200056f6000396000f3fe608060405234801561001057600080fd5b50600436106100935760003560e01c80634c060ec5116100665780634c060ec5146100fa5780636fa42261146101185780636ff968c314610136578063b332180b14610154578063c81ba8f01461017057610093565b806306fdde03146100985780632432e5c3146100b65780632b445d78146100d257806336a52a18146100dc575b600080fd5b6100a061018e565b6040516100ad91906107b3565b60405180910390f35b6100d060048036038101906100cb919061091e565b61021c565b005b6100da610309565b005b6100e4610441565b6040516100f191906109a8565b60405180910390f35b610102610467565b60405161010f91906107b3565b60405180910390f35b6101206104f5565b60405161012d91906109dc565b60405180910390f35b61013e6104fb565b60405161014b91906109a8565b60405180910390f35b61016e60048036038101906101699190610a23565b610521565b005b610178610671565b60405161018591906109dc565b60405180910390f35b6000805461019b90610a7f565b80601f01602080910402602001604051908101604052809291908181526020018280546101c790610a7f565b80156102145780601f106101e957610100808354040283529160200191610214565b820191906000526020600020905b8154815290600101906020018083116101f757829003601f168201915b505050505081565b600460009054906101000a900473ffffffffffffffffffffffffffffffffffffffff1673ffffffffffffffffffffffffffffffffffffffff163373ffffffffffffffffffffffffffffffffffffffff16146102ac576040517f08c379a00000000000000000000000000000000000000000000000000000000081526004016102a390610b23565b60405180910390fd5b80600390805190602001906102c2929190610677565b503373ffffffffffffffffffffffffffffffffffffffff167f3ae1cf7f1c1eb36ec0c24d58f3b53f659eb11765219e314000d130684f2fdbe160405160405180910390a250565b600560009054906101000a900473ffffffffffffffffffffffffffffffffffffffff1673ffffffffffffffffffffffffffffffffffffffff163373ffffffffffffffffffffffffffffffffffffffff1614610399576040517f08c379a000000000000000000000000000000000000000000000000000000000815260040161039090610bb5565b60405180910390fd5b600560009054906101000a900473ffffffffffffffffffffffffffffffffffffffff16600460006101000a81548173ffffffffffffffffffffffffffffffffffffffff021916908373ffffffffffffffffffffffffffffffffffffffff1602179055503373ffffffffffffffffffffffffffffffffffffffff167f6e5f35e8104c314f925d0baafd67e814ede64c5b6673a233aa82c023e2451cd860405160405180910390a2565b600460009054906101000a900473ffffffffffffffffffffffffffffffffffffffff1681565b6003805461047490610a7f565b80601f01602080910402602001604051908101604052809291908181526020018280546104a090610a7f565b80156104ed5780601f106104c2576101008083540402835291602001916104ed565b820191906000526020600020905b8154815290600101906020018083116104d057829003601f168201915b505050505081565b60025481565b600560009054906101000a900473ffffffffffffffffffffffffffffffffffffffff1681565b600460009054906101000a900473ffffffffffffffffffffffffffffffffffffffff1673ffffffffffffffffffffffffffffffffffffffff163373ffffffffffffffffffffffffffffffffffffffff16146105b1576040517f08c379a00000000000000000000000000000000000000000000000000000000081526004016105a890610b23565b60405180910390fd5b80600560006101000a81548173ffffffffffffffffffffffffffffffffffffffff021916908373ffffffffffffffffffffffffffffffffffffffff160217905550600560009054906101000a900473ffffffffffffffffffffffffffffffffffffffff1673ffffffffffffffffffffffffffffffffffffffff163373ffffffffffffffffffffffffffffffffffffffff167f3ce7d0c04d2ef9adf7825b41aa982b376bd65267c91603077653811dcce94b7460405160405180910390a350565b60015481565b82805461068390610a7f565b90600052602060002090601f0160209004810192826106a557600085556106ec565b82601f106106be57805160ff19168380011785556106ec565b828001600101855582156106ec579182015b828111156106eb5782518255916020019190600101906106d0565b5b5090506106f991906106fd565b5090565b5b808211156107165760008160009055506001016106fe565b5090565b600081519050919050565b600082825260208201905092915050565b60005b83811015610754578082015181840152602081019050610739565b83811115610763576000848401525b50505050565b6000601f19601f8301169050919050565b60006107858261071a565b61078f8185610725565b935061079f818560208601610736565b6107a881610769565b840191505092915050565b600060208201905081810360008301526107cd818461077a565b905092915050565b6000604051905090565b600080fd5b600080fd5b600080fd5b600080fd5b7f4e487b7100000000000000000000000000000000000000000000000000000000600052604160045260246000fd5b61082b82610769565b810181811067ffffffffffffffff8211171561084a576108496107f3565b5b80604052505050565b600061085d6107d5565b90506108698282610822565b919050565b600067ffffffffffffffff821115610889576108886107f3565b5b61089282610769565b9050602081019050919050565b82818337600083830152505050565b60006108c16108bc8461086e565b610853565b9050828152602081018484840111156108dd576108dc6107ee565b5b6108e884828561089f565b509392505050565b600082601f830112610905576109046107e9565b5b81356109158482602086016108ae565b91505092915050565b600060208284031215610934576109336107df565b5b600082013567ffffffffffffffff811115610952576109516107e4565b5b61095e848285016108f0565b91505092915050565b600073ffffffffffffffffffffffffffffffffffffffff82169050919050565b600061099282610967565b9050919050565b6109a281610987565b82525050565b60006020820190506109bd6000830184610999565b92915050565b6000819050919050565b6109d6816109c3565b82525050565b60006020820190506109f160008301846109cd565b92915050565b610a0081610987565b8114610a0b57600080fd5b50565b600081359050610a1d816109f7565b92915050565b600060208284031215610a3957610a386107df565b5b6000610a4784828501610a0e565b91505092915050565b7f4e487b7100000000000000000000000000000000000000000000000000000000600052602260045260246000fd5b60006002820490506001821680610a9757607f821691505b60208210811415610aab57610aaa610a50565b5b50919050565b7f47726176653a2063616c6c6572206973206e6f742074686520696e686572697460008201527f6f72000000000000000000000000000000000000000000000000000000000000602082015250565b6000610b0d602283610725565b9150610b1882610ab1565b604082019050919050565b60006020820190508181036000830152610b3c81610b00565b9050919050565b7f47726176653a2063616c6c6572206973206e6f7420746865207375636365737360008201527f6f72000000000000000000000000000000000000000000000000000000000000602082015250565b6000610b9f602283610725565b9150610baa82610b43565b604082019050919050565b60006020820190508181036000830152610bce81610b92565b905091905056fea2646970667358221220a81f3479b5689b791108b5839476ba031dd701083ef219dbc9e6f8433ba64eb264736f6c634300080b0033a2646970667358221220f9e76bdf54b52900843d36ed122291d7592aef613174e07e53962bca215f04af64736f6c634300080b0033",
  "immutableReferences": {},
  "source": "// SPDX-License-Identifier: MIT\npragma solidity >=0.4.22 <0.9.0;\n\nimport \"./Grave.sol\";\n\ncontract GraveFactory {\n    mapping(address => Grave[]) private _graves;\n    uint256 constant maxLimit = 20;\n\n    constructor() { }\n\n    function associatedGravesCount() public view returns(uint256) {\n        return _graves[msg.sender].length;\n    }\n\n    function createGrave(string memory name, int256 birth, int256 death, string memory portraitURL) public {\n        Grave grave = new Grave(name, birth, death, portraitURL, msg.sender);\n        _graves[msg.sender].push(grave);\n    }\n\n    function associatedGraves(uint256 limit, uint256 offset) public view returns(Grave[] memory coll) {\n        uint256 count = associatedGravesCount();\n        uint256 start = count - offset < 0 ? count : offset;\n        uint256 currentLimit = limit > maxLimit ? maxLimit : limit;\n        uint256 end = offset + currentLimit < count ? offset + currentLimit : count;\n\n        coll = new Grave[](end - start);\n\n        for(uint256 i=0; i+start<end; i++) {\n            coll[i] = _graves[msg.sender][i+start];\n        }\n        return coll;\n    }\n\n    function associateGrave(address graveAddress) public {\n        _graves[msg.sender].push(Grave(graveAddress));\n    }\n}",
  "sourcePath": "/work/digital-cemetery/contracts/GraveFactory.sol",
  "compiler": {
    "name": "solc",
    "version": "0.8.11+commit.d7f03943.Emscripten.clang"
  },
  "schemaVersion": "3.4.4",
  "updatedAt": "2022-02-13T00:59:08.212Z",
  "devdoc": {
    "kind": "dev",
    "methods": {},
    "version": 1
  },
  "userdoc": {
    "kind": "user",
    "methods": {},
    "version": 1
  }
}